{
  "address": "0x1d6E7ea5B7dC910AEB8E5cA8db67f9Cf7710A866",
  "abi": [
    {
      "inputs": [
        {
          "internalType": "contract IPancakeRouter02",
          "name": "_pancake02",
          "type": "address"
        }
      ],
      "stateMutability": "nonpayable",
      "type": "constructor"
    },
    {
      "inputs": [],
      "name": "ETH_CONTRACT_ADDRESS",
      "outputs": [
        {
          "internalType": "address",
          "name": "",
          "type": "address"
        }
      ],
      "stateMutability": "view",
      "type": "function"
    },
    {
      "inputs": [],
      "name": "MAX",
      "outputs": [
        {
          "internalType": "uint256",
          "name": "",
          "type": "uint256"
        }
      ],
      "stateMutability": "view",
      "type": "function"
    },
    {
      "inputs": [],
      "name": "WBNB_CONTRACT_ADDRESS",
      "outputs": [
        {
          "internalType": "address",
          "name": "",
          "type": "address"
        }
      ],
      "stateMutability": "view",
      "type": "function"
    },
    {
      "inputs": [
        {
          "internalType": "address",
          "name": "fns",
          "type": "address"
        },
        {
          "internalType": "bytes",
          "name": "data",
          "type": "bytes"
        }
      ],
      "name": "execute",
      "outputs": [
        {
          "internalType": "bytes",
          "name": "",
          "type": "bytes"
        }
      ],
      "stateMutability": "payable",
      "type": "function"
    },
    {
      "inputs": [],
      "name": "pancakeRouter02",
      "outputs": [
        {
          "internalType": "contract IPancakeRouter02",
          "name": "",
          "type": "address"
        }
      ],
      "stateMutability": "view",
      "type": "function"
    },
    {
      "inputs": [
        {
          "internalType": "address[]",
          "name": "path",
          "type": "address[]"
        },
        {
          "internalType": "uint256",
          "name": "srcQty",
          "type": "uint256"
        },
        {
          "internalType": "uint256",
          "name": "amountOutMin",
          "type": "uint256"
        },
        {
          "internalType": "uint256",
          "name": "deadline",
          "type": "uint256"
        },
        {
          "internalType": "bool",
          "name": "isNative",
          "type": "bool"
        }
      ],
      "name": "trade",
      "outputs": [
        {
          "internalType": "address",
          "name": "",
          "type": "address"
        },
        {
          "internalType": "uint256",
          "name": "",
          "type": "uint256"
        }
      ],
      "stateMutability": "payable",
      "type": "function"
    },
    {
      "inputs": [
        {
          "internalType": "address[]",
          "name": "path",
          "type": "address[]"
        },
        {
          "internalType": "uint256",
          "name": "amountOutMin",
          "type": "uint256"
        },
        {
          "internalType": "uint256",
          "name": "deadline",
          "type": "uint256"
        },
        {
          "internalType": "bool",
          "name": "isNative",
          "type": "bool"
        }
      ],
      "name": "tradeTokensSupportingFee",
      "outputs": [
        {
          "internalType": "address",
          "name": "",
          "type": "address"
        },
        {
          "internalType": "uint256",
          "name": "",
          "type": "uint256"
        }
      ],
      "stateMutability": "payable",
      "type": "function"
    },
    {
      "stateMutability": "payable",
      "type": "receive"
    }
  ],
  "transactionHash": "0xef222a9eb77f59dd0c671b427047208c95ab9231693428c57789628d133b54cb",
  "args": [
    "0xa6AD18C2aC47803E193F75c3677b14BF19B94883"
  ],
  "numDeployments": 1,
  "solcInputHash": "99d904be006cb3ff3ddd6da2b08b0b77",
  "bytecode": "0x608060405234801561001057600080fd5b5060405161151c38038061151c8339818101604052602081101561003357600080fd5b5051600180546001600160a01b0319166001600160a01b038084169190911791829055604080516315ab88c960e31b81529051929091169163ad5c464891600480820192602092909190829003018186803b15801561009157600080fd5b505afa1580156100a5573d6000803e3d6000fd5b505050506040513d60208110156100bb57600080fd5b5051600080546001600160a01b039092166001600160a01b03199092169190911790555061142e806100ee6000396000f3fe6080604052600436106100745760003560e01c8063c83d788b1161004e578063c83d788b1461024d578063cd2239fb14610262578063d49d518114610277578063f87485361461029e5761007b565b80631cff79cd1461008057806371e13d241461017557806372e94bf61461021c5761007b565b3661007b57005b600080fd5b6101006004803603604081101561009657600080fd5b6001600160a01b0382351691908101906040810160208201356401000000008111156100c157600080fd5b8201836020820111156100d357600080fd5b803590602001918460018302840111640100000000831117156100f557600080fd5b50909250905061031c565b6040805160208082528351818301528351919283929083019185019080838360005b8381101561013a578181015183820152602001610122565b50505050905090810190601f1680156101675780820380516001836020036101000a031916815260200191505b509250505060405180910390f35b6101f9600480360360a081101561018b57600080fd5b8101906020810181356401000000008111156101a657600080fd5b8201836020820111156101b857600080fd5b803590602001918460208302840111640100000000831117156101da57600080fd5b91935091508035906020810135906040810135906060013515156104f2565b604080516001600160a01b03909316835260208301919091528051918290030190f35b34801561022857600080fd5b50610231610c7d565b604080516001600160a01b039092168252519081900360200190f35b34801561025957600080fd5b50610231610c82565b34801561026e57600080fd5b50610231610c91565b34801561028357600080fd5b5061028c610ca0565b60408051918252519081900360200190f35b6101f9600480360360808110156102b457600080fd5b8101906020810181356401000000008111156102cf57600080fd5b8201836020820111156102e157600080fd5b8035906020019184602083028401116401000000008311171561030357600080fd5b9193509150803590602081013590604001351515610ca6565b606060006060856001600160a01b031685856040518083838082843760405192019450600093509091505080830381855af49150503d806000811461037d576040519150601f19603f3d011682016040523d82523d6000602084013e610382565b606091505b5091509150816104e95760448151101561039b57600080fd5b60048101805190916024019060208110156103b557600080fd5b81019080805160405193929190846401000000008211156103d557600080fd5b9083019060208201858111156103ea57600080fd5b825164010000000081118282018810171561040457600080fd5b82525081516020918201929091019080838360005b83811015610431578181015183820152602001610419565b50505050905090810190601f16801561045e5780820380516001836020036101000a031916815260200191505b5060405250505060405162461bcd60e51b81526004018080602001828103825283818151815260200191508051906020019080838360005b838110156104ae578181015183820152602001610496565b50505050905090810190601f1680156104db5780820380516001836020036101000a031916815260200191505b509250505060405180910390fd5b95945050505050565b60008086610536576040805162461bcd60e51b815260206004820152600c60248201526b0d2dcecc2d8d2c840e0c2e8d60a31b604482015290519081900360640190fd5b8660606000346109cd5760008b8b600081811061054f57fe5b60015460408051636eb1769f60e11b81523060048201526001600160a01b03928316602482015290516020938402959095013590911694508d9385935063dd62ed3e92604480840193919291829003018186803b1580156105af57600080fd5b505afa1580156105c3573d6000803e3d6000fd5b505050506040513d60208110156105d957600080fd5b505110156106bc576001546040805163095ea7b360e01b81526001600160a01b03928316600482015260006024820181905291519284169263095ea7b39260448084019391929182900301818387803b15801561063557600080fd5b505af1158015610649573d6000803e3d6000fd5b50506001546040805163095ea7b360e01b81526001600160a01b03928316600482015260001960248201529051918516935063095ea7b3925060448082019260009290919082900301818387803b1580156106a357600080fd5b505af11580156106b7573d6000803e3d6000fd5b505050505b8661084457600160009054906101000a90046001600160a01b03166001600160a01b03166338ed17398b8b8f8f338e6040518763ffffffff1660e01b81526004018087815260200186815260200180602001846001600160a01b031681526020018381526020018281038252868682818152602001925060200280828437600081840152601f19601f820116905080830192505050975050505050505050600060405180830381600087803b15801561077457600080fd5b505af1158015610788573d6000803e3d6000fd5b505050506040513d6000823e601f3d908101601f1916820160405260208110156107b157600080fd5b81019080805160405193929190846401000000008211156107d157600080fd5b9083019060208201858111156107e657600080fd5b825186602082028301116401000000008211171561080357600080fd5b82525081516020918201928201910280838360005b83811015610830578181015183820152602001610818565b5050505090500160405250505092506109c7565b600160009054906101000a90046001600160a01b03166001600160a01b03166318cbafe58b8b8f8f338e6040518763ffffffff1660e01b81526004018087815260200186815260200180602001846001600160a01b031681526020018381526020018281038252868682818152602001925060200280828437600081840152601f19601f820116905080830192505050975050505050505050600060405180830381600087803b1580156108f757600080fd5b505af115801561090b573d6000803e3d6000fd5b505050506040513d6000823e601f3d908101601f19168201604052602081101561093457600080fd5b810190808051604051939291908464010000000082111561095457600080fd5b90830190602082018581111561096957600080fd5b825186602082028301116401000000008211171561098657600080fd5b82525081516020918201928201910280838360005b838110156109b357818101518382015260200161099b565b505050509050016040525050509250600191505b50610b45565b600160009054906101000a90046001600160a01b03166001600160a01b0316637ff36ab58a8a8e8e338d6040518763ffffffff1660e01b81526004018086815260200180602001846001600160a01b031681526020018381526020018281038252868682818152602001925060200280828437600081840152601f19601f82011690508083019250505096505050505050506000604051808303818588803b158015610a7857600080fd5b505af1158015610a8c573d6000803e3d6000fd5b50505050506040513d6000823e601f3d908101601f191682016040526020811015610ab657600080fd5b8101908080516040519392919084640100000000821115610ad657600080fd5b908301906020820185811115610aeb57600080fd5b8251866020820283011164010000000082111715610b0857600080fd5b82525081516020918201928201910280838360005b83811015610b35578181015183820152602001610b1d565b5050505090500160405250505091505b600282511015610b9c576040805162461bcd60e51b815260206004820152601560248201527f696e76616c6964206f7574707574732076616c75650000000000000000000000604482015290519081900360640190fd5b8782600184510381518110610bad57fe5b602002602001015110158015610bd657508882600081518110610bcc57fe5b6020026020010151145b610c27576040805162461bcd60e51b815260206004820152601960248201527f657870656374656420616d6f756e74206e6f7420726561636800000000000000604482015290519081900360640190fd5b80610c50578a8a60018503818110610c3b57fe5b905060200201356001600160a01b0316610c53565b60005b82600184510381518110610c6357fe5b602002602001015194509450505050965096945050505050565b600081565b6001546001600160a01b031681565b6000546001600160a01b031681565b60001981565b60008085610cea576040805162461bcd60e51b815260206004820152600c60248201526b0d2dcecc2d8d2c840e0c2e8d60a31b604482015290519081900360640190fd5b8560003461109f57600089896000818110610d0157fe5b905060200201356001600160a01b031690506000816001600160a01b03166370a08231306040518263ffffffff1660e01b815260040180826001600160a01b0316815260200191505060206040518083038186803b158015610d6257600080fd5b505afa158015610d76573d6000803e3d6000fd5b505050506040513d6020811015610d8c57600080fd5b505160015460408051636eb1769f60e11b81523060048201526001600160a01b039283166024820152905192935083929185169163dd62ed3e91604480820192602092909190829003018186803b158015610de657600080fd5b505afa158015610dfa573d6000803e3d6000fd5b505050506040513d6020811015610e1057600080fd5b50511015610ef3576001546040805163095ea7b360e01b81526001600160a01b03928316600482015260006024820181905291519285169263095ea7b39260448084019391929182900301818387803b158015610e6c57600080fd5b505af1158015610e80573d6000803e3d6000fd5b50506001546040805163095ea7b360e01b81526001600160a01b03928316600482015260001960248201529051918616935063095ea7b3925060448082019260009290919082900301818387803b158015610eda57600080fd5b505af1158015610eee573d6000803e3d6000fd5b505050505b86610fc857600160009054906101000a90046001600160a01b03166001600160a01b0316635c11d795828b8e8e308e6040518763ffffffff1660e01b81526004018087815260200186815260200180602001846001600160a01b031681526020018381526020018281038252868682818152602001925060200280828437600081840152601f19601f820116905080830192505050975050505050505050600060405180830381600087803b158015610fab57600080fd5b505af1158015610fbf573d6000803e3d6000fd5b50505050611098565b600160009054906101000a90046001600160a01b03166001600160a01b031663791ac947828b8e8e308e6040518763ffffffff1660e01b81526004018087815260200186815260200180602001846001600160a01b031681526020018381526020018281038252868682818152602001925060200280828437600081840152601f19601f820116905080830192505050975050505050505050600060405180830381600087803b15801561107b57600080fd5b505af115801561108f573d6000803e3d6000fd5b50505050600192505b5050611164565b600160009054906101000a90046001600160a01b03166001600160a01b031663b6f9de9534898c8c308c6040518763ffffffff1660e01b81526004018086815260200180602001846001600160a01b031681526020018381526020018281038252868682818152602001925060200280828437600081840152601f19601f82011690508083019250505096505050505050506000604051808303818588803b15801561114a57600080fd5b505af115801561115e573d6000803e3d6000fd5b50505050505b60008161118f5789896001850381811061117a57fe5b905060200201356001600160a01b0316611192565b60005b9050600061119f82611210565b9050888110156111f6576040805162461bcd60e51b815260206004820152601960248201527f657870656374656420616d6f756e74206e6f7420726561636800000000000000604482015290519081900360640190fd5b61120082826112ba565b909a909950975050505050505050565b60006001600160a01b0382166112275750476112b5565b604080517f70a0823100000000000000000000000000000000000000000000000000000000815230600482015290516001600160a01b038416916370a08231916024808301926020929190829003018186803b15801561128657600080fd5b505afa15801561129a573d6000803e3d6000fd5b505050506040513d60208110156112b057600080fd5b505190505b919050565b6001600160a01b03821661133057804710156112d557600080fd5b604051600090339083908381818185875af1925050503d8060008114611317576040519150601f19603f3d011682016040523d82523d6000602084013e61131c565b606091505b505090508061132a57600080fd5b506113c0565b604080517fa9059cbb0000000000000000000000000000000000000000000000000000000081523360048201526024810183905290516001600160a01b0384169163a9059cbb91604480830192600092919082900301818387803b15801561139757600080fd5b505af11580156113ab573d6000803e3d6000fd5b505050506113b76113c4565b6113c057600080fd5b5050565b6000803d80156113db57602081146113e4576113f0565b600191506113f0565b60206000803e60005191505b50151590509056fea26469706673582212203ac2103f7f6f1534bb59b20b6d7d23499ba19638645789040d8f96ac97da6ed764736f6c634300060c0033",
  "devdoc": {
    "kind": "dev",
    "methods": {
      "constructor": {
        "details": "Contract constructor",
        "params": {
          "_pancake02": "uniswap routes contract address"
        }
      }
    },
    "version": 1
  },
  "userdoc": {
    "kind": "user",
    "methods": {},
    "version": 1
  },
  "storageLayout": {
    "storage": [
      {
        "astId": 1453,
        "contract": "contracts/bsc/pancake_proxy.sol:PancakeProxy",
        "label": "WBNB_CONTRACT_ADDRESS",
        "offset": 0,
        "slot": "0",
        "type": "t_address"
      },
      {
        "astId": 1455,
        "contract": "contracts/bsc/pancake_proxy.sol:PancakeProxy",
        "label": "pancakeRouter02",
        "offset": 0,
        "slot": "1",
        "type": "t_contract(IPancakeRouter02)1439"
      }
    ],
    "types": {
      "t_address": {
        "encoding": "inplace",
        "label": "address",
        "numberOfBytes": "20"
      },
      "t_contract(IPancakeRouter02)1439": {
        "encoding": "inplace",
        "label": "contract IPancakeRouter02",
        "numberOfBytes": "20"
      }
    }
  }
}