{
  "address": "0x76318093c374e39B260120EBFCe6aBF7f75c8D28",
  "abi": [
    {
      "inputs": [
        {
          "internalType": "address",
          "name": "_logic",
          "type": "address"
        },
        {
          "internalType": "address",
          "name": "_admin",
          "type": "address"
        },
        {
          "internalType": "address",
          "name": "_incognito",
          "type": "address"
        },
        {
          "internalType": "bytes",
          "name": "_data",
          "type": "bytes"
        }
      ],
      "stateMutability": "payable",
      "type": "constructor"
    },
    {
      "anonymous": false,
      "inputs": [
        {
          "indexed": false,
          "internalType": "address",
          "name": "claimer",
          "type": "address"
        }
      ],
      "name": "Claim",
      "type": "event"
    },
    {
      "anonymous": false,
      "inputs": [
        {
          "indexed": false,
          "internalType": "address",
          "name": "previousIncognito",
          "type": "address"
        },
        {
          "indexed": false,
          "internalType": "address",
          "name": "newIncognito",
          "type": "address"
        }
      ],
      "name": "IncognitoChanged",
      "type": "event"
    },
    {
      "anonymous": false,
      "inputs": [
        {
          "indexed": false,
          "internalType": "address",
          "name": "admin",
          "type": "address"
        }
      ],
      "name": "Paused",
      "type": "event"
    },
    {
      "anonymous": false,
      "inputs": [
        {
          "indexed": false,
          "internalType": "address",
          "name": "previousSuccessor",
          "type": "address"
        },
        {
          "indexed": false,
          "internalType": "address",
          "name": "newSuccessor",
          "type": "address"
        }
      ],
      "name": "SuccessorChanged",
      "type": "event"
    },
    {
      "anonymous": false,
      "inputs": [
        {
          "indexed": false,
          "internalType": "address",
          "name": "admin",
          "type": "address"
        }
      ],
      "name": "Unpaused",
      "type": "event"
    },
    {
      "anonymous": false,
      "inputs": [
        {
          "indexed": true,
          "internalType": "address",
          "name": "implementation",
          "type": "address"
        }
      ],
      "name": "Upgraded",
      "type": "event"
    },
    {
      "stateMutability": "payable",
      "type": "fallback"
    },
    {
      "inputs": [],
      "name": "admin",
      "outputs": [
        {
          "internalType": "address",
          "name": "",
          "type": "address"
        }
      ],
      "stateMutability": "nonpayable",
      "type": "function"
    },
    {
      "inputs": [],
      "name": "claim",
      "outputs": [],
      "stateMutability": "nonpayable",
      "type": "function"
    },
    {
      "inputs": [],
      "name": "implementation",
      "outputs": [
        {
          "internalType": "address",
          "name": "",
          "type": "address"
        }
      ],
      "stateMutability": "nonpayable",
      "type": "function"
    },
    {
      "inputs": [],
      "name": "incognito",
      "outputs": [
        {
          "internalType": "address",
          "name": "",
          "type": "address"
        }
      ],
      "stateMutability": "nonpayable",
      "type": "function"
    },
    {
      "inputs": [],
      "name": "pause",
      "outputs": [],
      "stateMutability": "nonpayable",
      "type": "function"
    },
    {
      "inputs": [],
      "name": "paused",
      "outputs": [
        {
          "internalType": "bool",
          "name": "",
          "type": "bool"
        }
      ],
      "stateMutability": "nonpayable",
      "type": "function"
    },
    {
      "inputs": [
        {
          "internalType": "address",
          "name": "newSuccessor",
          "type": "address"
        }
      ],
      "name": "retire",
      "outputs": [],
      "stateMutability": "nonpayable",
      "type": "function"
    },
    {
      "inputs": [],
      "name": "successor",
      "outputs": [
        {
          "internalType": "address",
          "name": "",
          "type": "address"
        }
      ],
      "stateMutability": "nonpayable",
      "type": "function"
    },
    {
      "inputs": [],
      "name": "unpause",
      "outputs": [],
      "stateMutability": "nonpayable",
      "type": "function"
    },
    {
      "inputs": [
        {
          "internalType": "address",
          "name": "newIncognito",
          "type": "address"
        }
      ],
      "name": "upgradeIncognito",
      "outputs": [],
      "stateMutability": "nonpayable",
      "type": "function"
    },
    {
      "inputs": [
        {
          "internalType": "address",
          "name": "newImplementation",
          "type": "address"
        }
      ],
      "name": "upgradeTo",
      "outputs": [],
      "stateMutability": "nonpayable",
      "type": "function"
    },
    {
      "inputs": [
        {
          "internalType": "address",
          "name": "newImplementation",
          "type": "address"
        },
        {
          "internalType": "bytes",
          "name": "data",
          "type": "bytes"
        }
      ],
      "name": "upgradeToAndCall",
      "outputs": [],
      "stateMutability": "payable",
      "type": "function"
    },
    {
      "stateMutability": "payable",
      "type": "receive"
    }
  ],
  "transactionHash": "0x0e1088976321d5743558484e9228b258d6de71438f75336fdb49199b31409db2",
  "args": [
    "0x64B464037Ef0Aa3D1a95A5c04BC77e8667870E90",
    "0x9B1706BCC9c623138Fe04a08E9c3CD5B9156c28e",
    "0x5543eab46Da92d4b26186508c9bEE57aC6309033",
    "0xc4d66de80000000000000000000000000000000000000000000000000000000000000000"
  ],
  "numDeployments": 1,
  "solcInputHash": "6f687e5293434a3c4076cf73e6cc7585",
  "bytecode": "0x608060405260405162000f8238038062000f82833981810160405260808110156200002957600080fd5b8151602083015160408085015160608601805192519496939591949391820192846401000000008211156200005d57600080fd5b9083019060208201858111156200007357600080fd5b82516401000000008111828201881017156200008e57600080fd5b82525081516020918201929091019080838360005b83811015620000bd578181015183820152602001620000a3565b50505050905090810190601f168015620000eb5780820380516001836020036101000a031916815260200191505b5060405250859150829050620001018262000230565b80511562000207576000826001600160a01b0316826040518082805190602001908083835b60208310620001475780518252601f19909201916020918201910162000126565b6001836020036101000a038019825116818451168082178552505050505050905001915050600060405180830381855af49150503d8060008114620001a9576040519150601f19603f3d011682016040523d82523d6000602084013e620001ae565b606091505b505090508062000205576040805162461bcd60e51b815260206004820152601360248201527f44454c454741544543414c4c206661696c656400000000000000000000000000604482015290519081900360640190fd5b505b50620002109050565b6200021b836200029c565b6200022682620002c0565b50505050620002ea565b6200023b81620002e4565b620002785760405162461bcd60e51b815260040180806020018281038252603681526020018062000f4c6036913960400191505060405180910390fd5b7f360894a13ba1a3210667c828492db98dca3e2076cc3735a920a3ca505d382bbc55565b7fb53127684a568b3173ae13b9f8a6016e243e63b6e8ee1178d6a717850b5d610355565b7f62135fc083646fdb4e1a9d700e351b886a4a5a39da980650269edd1ade91ffd255565b3b151590565b610c5280620002fa6000396000f3fe6080604052600436106100cb5760003560e01c80635c975abb116100745780638a9845381161004e5780638a984538146102765780639e6371ba1461028b578063f851a440146102be576100da565b80635c975abb146102235780636ff968c31461024c5780638456cb5914610261576100da565b80634e71d92d116100a55780634e71d92d1461015d5780634f1ef286146101725780635c60da1b146101f2576100da565b80631c587771146100e25780633659cfe6146101155780633f4ba83a14610148576100da565b366100da576100d86102d3565b005b6100d86102d3565b3480156100ee57600080fd5b506100d86004803603602081101561010557600080fd5b50356001600160a01b03166102ed565b34801561012157600080fd5b506100d86004803603602081101561013857600080fd5b50356001600160a01b03166103b7565b34801561015457600080fd5b506100d86103e1565b34801561016957600080fd5b506100d861045c565b6100d86004803603604081101561018857600080fd5b6001600160a01b0382351691908101906040810160208201356401000000008111156101b357600080fd5b8201836020820111156101c557600080fd5b803590602001918460018302840111640100000000831117156101e757600080fd5b5090925090506104d1565b3480156101fe57600080fd5b506102076105c6565b604080516001600160a01b039092168252519081900360200190f35b34801561022f57600080fd5b50610238610603565b604080519115158252519081900360200190f35b34801561025857600080fd5b5061020761062e565b34801561026d57600080fd5b506100d8610659565b34801561028257600080fd5b506102076106c8565b34801561029757600080fd5b506100d8600480360360208110156102ae57600080fd5b50356001600160a01b03166106f3565b3480156102ca57600080fd5b506102076107ad565b6102db6107d8565b6102eb6102e661087c565b6108a1565b565b6102f56108c5565b6001600160a01b0316336001600160a01b031614156103ac576001600160a01b0381166103535760405162461bcd60e51b8152600401808060200182810382526040815260200180610b086040913960400191505060405180910390fd5b7f86d392a76e88298144124db3dd7265135d76810f52d747dc329a0f7722135e5c61037c6108ea565b604080516001600160a01b03928316815291841660208301528051918290030190a16103a78161090f565b6103b4565b6103b46102d3565b50565b6103bf6108c5565b6001600160a01b0316336001600160a01b031614156103ac576103a781610933565b6103e96108c5565b6001600160a01b0316336001600160a01b031614156104545761040a610973565b6104455760405162461bcd60e51b8152600401808060200182810382526030815260200180610bab6030913960400191505060405180910390fd5b61044f6000610998565b6102eb565b6102eb6102d3565b6104646109bc565b6001600160a01b0316336001600160a01b03161415610454577f0c7ef932d3b91976772937f18d5ef9b39a9930bef486b576c374f047c4b512dc6104a66109bc565b604080516001600160a01b039092168252519081900360200190a161044f6104cc6109bc565b6109e1565b6104d96108c5565b6001600160a01b0316336001600160a01b031614156105b9576104fb83610933565b6000836001600160a01b031683836040518083838082843760405192019450600093509091505080830381855af49150503d8060008114610558576040519150601f19603f3d011682016040523d82523d6000602084013e61055d565b606091505b50509050806105b3576040805162461bcd60e51b815260206004820152601360248201527f44454c454741544543414c4c206661696c656400000000000000000000000000604482015290519081900360640190fd5b506105c1565b6105c16102d3565b505050565b60006105d06108c5565b6001600160a01b0316336001600160a01b031614156105f8576105f161087c565b9050610600565b6106006102d3565b90565b600061060d6108c5565b6001600160a01b0316336001600160a01b031614156105f8576105f1610973565b60006106386108c5565b6001600160a01b0316336001600160a01b031614156105f8576105f16109bc565b6106616108c5565b6001600160a01b0316336001600160a01b0316141561045457610682610973565b156106be5760405162461bcd60e51b8152600401808060200182810382526034815260200180610b486034913960400191505060405180910390fd5b61044f6001610998565b60006106d26108c5565b6001600160a01b0316336001600160a01b031614156105f8576105f16108ea565b6106fb6108c5565b6001600160a01b0316336001600160a01b031614156103ac576001600160a01b0381166107595760405162461bcd60e51b815260040180806020018281038252603a815260200180610a98603a913960400191505060405180910390fd5b7ff966f857c3c376f2e1df873bbe2596a18675dc056dc3465dfbbe8fe9ac02c9746107826109bc565b604080516001600160a01b03928316815291841660208301528051918290030190a16103a781610a05565b60006107b76108c5565b6001600160a01b0316336001600160a01b031614156105f8576105f16108c5565b6107e06108c5565b6001600160a01b0316336001600160a01b031614156108305760405162461bcd60e51b8152600401808060200182810382526042815260200180610bdb6042913960600191505060405180910390fd5b610838610973565b156108745760405162461bcd60e51b815260040180806020018281038252602f815260200180610b7c602f913960400191505060405180910390fd5b6102eb6102eb565b7f360894a13ba1a3210667c828492db98dca3e2076cc3735a920a3ca505d382bbc5490565b3660008037600080366000845af43d6000803e8080156108c0573d6000f35b3d6000fd5b7fb53127684a568b3173ae13b9f8a6016e243e63b6e8ee1178d6a717850b5d61035490565b7f62135fc083646fdb4e1a9d700e351b886a4a5a39da980650269edd1ade91ffd25490565b7f62135fc083646fdb4e1a9d700e351b886a4a5a39da980650269edd1ade91ffd255565b61093c81610a29565b6040516001600160a01b038216907fbc7cd75a20ee27fd9adebab32041f755214dbc6bffa90cc0225b39da2e5c2d3b90600090a250565b7f8dea8703c3cf94703383ce38a9c894669dccd4ca8e65ddb43267aa02487114505490565b7f8dea8703c3cf94703383ce38a9c894669dccd4ca8e65ddb43267aa024871145055565b7f7b13fc932b1063ca775d428558b73e20eab6804d4d9b5a148d7cbae4488973f85490565b7fb53127684a568b3173ae13b9f8a6016e243e63b6e8ee1178d6a717850b5d610355565b7f7b13fc932b1063ca775d428558b73e20eab6804d4d9b5a148d7cbae4488973f855565b610a3281610a91565b610a6d5760405162461bcd60e51b8152600401808060200182810382526036815260200180610ad26036913960400191505060405180910390fd5b7f360894a13ba1a3210667c828492db98dca3e2076cc3735a920a3ca505d382bbc55565b3b15159056fe5472616e73706172656e745570677261646561626c6550726f78793a20737563636573736f7220697320746865207a65726f20616464726573735570677261646561626c6550726f78793a206e657720696d706c656d656e746174696f6e206973206e6f74206120636f6e74726163745472616e73706172656e745570677261646561626c6550726f78793a20696e636f676e69746f2070726f787920697320746865207a65726f20616464726573735472616e73706172656e745570677261646561626c6550726f78793a20636f6e74726163742070617573656420616c72656164795472616e73706172656e745570677261646561626c6550726f78793a20636f6e7472616374206973207061757365645472616e73706172656e745570677261646561626c6550726f78793a20636f6e7472616374206e6f74207061757365645472616e73706172656e745570677261646561626c6550726f78793a2061646d696e2063616e6e6f742066616c6c6261636b20746f2070726f787920746172676574a26469706673582212208a2221fc52503ec012c89167c14d5be48818bb27ff7a19027539ddf7ff388ce164736f6c634300060c00335570677261646561626c6550726f78793a206e657720696d706c656d656e746174696f6e206973206e6f74206120636f6e7472616374",
  "devdoc": {
    "details": "This contract implements a proxy that is upgradeable by an admin.  To avoid https://medium.com/nomic-labs-blog/malicious-backdoors-in-ethereum-proxies-62629adf3357[proxy selector clashing], which can potentially be used in an attack, this contract uses the https://blog.openzeppelin.com/the-transparent-proxy-pattern/[transparent proxy pattern]. This pattern implies two things that go hand in hand:  1. If any account other than the admin calls the proxy, the call will be forwarded to the implementation, even if that call matches one of the admin functions exposed by the proxy itself. 2. If the admin calls the proxy, it can access the admin functions, but its calls will never be forwarded to the implementation. If the admin tries to call a function on the implementation it will fail with an error that says \"admin cannot fallback to proxy target\".  These properties mean that the admin account can only be used for admin actions like upgrading the proxy or changing the admin, so it's best if it's a dedicated account that is not used for anything else. This will avoid headaches due to sudden errors when trying to call a function from the proxy implementation.  Our recommendation is for the dedicated account to be an instance of the {ProxyAdmin} contract. If set up this way, you should think of the `ProxyAdmin` instance as the real administrative interface of your proxy.",
    "events": {
      "Claim(address)": {
        "details": "Emitted when the successor claimed thronze.*"
      },
      "IncognitoChanged(address,address)": {
        "details": "Emitted when the incognito proxy has changed."
      },
      "Paused(address)": {
        "details": "Emitted when the admin pause contract.*"
      },
      "SuccessorChanged(address,address)": {
        "details": "Emitted when the successor account has changed."
      },
      "Unpaused(address)": {
        "details": "Emitted when the admin unpaused contract.*"
      }
    },
    "kind": "dev",
    "methods": {
      "admin()": {
        "details": "Returns the current admin.  NOTE: Only the admin can call this function. See {ProxyAdmin-getProxyAdmin}.  TIP: To get this value clients can read directly from the storage slot shown below (specified by EIP1967) using the https://eth.wiki/json-rpc/API#eth_getstorageat[`eth_getStorageAt`] RPC call. `0xb53127684a568b3173ae13b9f8a6016e243e63b6e8ee1178d6a717850b5d6103`"
      },
      "claim()": {
        "details": "Successor claims thronze."
      },
      "constructor": {
        "details": "Initializes an upgradeable proxy managed by `_admin`, backed by the implementation at `_logic`, and optionally initialized with `_data` as explained in {UpgradeableProxy-constructor}."
      },
      "implementation()": {
        "details": "Returns the current implementation.  NOTE: Only the admin can call this function. See {ProxyAdmin-getProxyImplementation}.  TIP: To get this value clients can read directly from the storage slot shown below (specified by EIP1967) using the https://eth.wiki/json-rpc/API#eth_getstorageat[`eth_getStorageAt`] RPC call. `0x360894a13ba1a3210667c828492db98dca3e2076cc3735a920a3ca505d382bbc`"
      },
      "incognito()": {
        "details": "Returns the current incognito proxy.  NOTE: Only the admin can call this function. See {ProxyAdmin-getProxyImplementation}.  TIP: To get this value clients can read directly from the storage slot shown below (specified by EIP1967) using the https://eth.wiki/json-rpc/API#eth_getstorageat[`eth_getStorageAt`] RPC call. `0x6c1fc16c781d41e11abf5619c272a94b10ccafab380060da4bd63325467b854e`"
      },
      "pause()": {
        "details": "Admin pause contract."
      },
      "paused()": {
        "details": "Returns the current paused value.  NOTE: Only the admin can call this function. See {ProxyAdmin-getProxyImplementation}.  TIP: To get this value clients can read directly from the storage slot shown below (specified by EIP1967) using the https://eth.wiki/json-rpc/API#eth_getstorageat[`eth_getStorageAt`] RPC call. `0x8dea8703c3cf94703383ce38a9c894669dccd4ca8e65ddb43267aa0248711450`"
      },
      "retire(address)": {
        "details": "Admin retire to prepare transfer thronze to successor."
      },
      "successor()": {
        "details": "Returns the current successor.  NOTE: Only the admin can call this function. See {ProxyAdmin-getProxyImplementation}.  TIP: To get this value clients can read directly from the storage slot shown below (specified by EIP1967) using the https://eth.wiki/json-rpc/API#eth_getstorageat[`eth_getStorageAt`] RPC call. `0x7b13fc932b1063ca775d428558b73e20eab6804d4d9b5a148d7cbae4488973f8`"
      },
      "unpause()": {
        "details": "Admin unpause contract."
      },
      "upgradeIncognito(address)": {
        "details": "Admin upgrade incognito proxy."
      },
      "upgradeTo(address)": {
        "details": "Upgrade the implementation of the proxy.  NOTE: Only the admin can call this function. See {ProxyAdmin-upgrade}."
      },
      "upgradeToAndCall(address,bytes)": {
        "details": "Upgrade the implementation of the proxy, and then call a function from the new implementation as specified by `data`, which should be an encoded function call. This is useful to initialize new storage variables in the proxied contract.  NOTE: Only the admin can call this function. See {ProxyAdmin-upgradeAndCall}."
      }
    },
    "stateVariables": {
      "_ADMIN_SLOT": {
        "details": "Storage slot with the admin of the contract. This is the keccak-256 hash of \"eip1967.proxy.admin\" subtracted by 1, and is validated in the constructor."
      },
      "_INCOGNITO_SLOT": {
        "details": "Storage slot with the incognito proxy. This is the keccak-256 hash of \"eip1967.proxy.incognito.\" subtracted by 1, and is validated in the constructor."
      },
      "_PAUSED_SLOT": {
        "details": "Storage slot with status paused or not. This is the keccak-256 hash of \"eip1967.proxy.paused\" subtracted by 1, and is validated in the constructor."
      },
      "_SUCCESSOR_SLOT": {
        "details": "Storage slot with the admin of the contract. This is the keccak-256 hash of \"eip1967.proxy.successor\" subtracted by 1, and is validated in the constructor."
      }
    },
    "version": 1
  },
  "userdoc": {
    "kind": "user",
    "methods": {},
    "version": 1
  },
  "storageLayout": {
    "storage": [],
    "types": null
  }
}