{
  "address": "0xB806dC43E5494845795Ca75BA49406cD0FFEA2e0",
  "abi": [
    {
      "inputs": [
        {
          "internalType": "contract ISwapRouter2",
          "name": "_swaproute02",
          "type": "address"
        }
      ],
      "stateMutability": "payable",
      "type": "constructor"
    },
    {
      "inputs": [],
      "name": "ETH_CONTRACT_ADDRESS",
      "outputs": [
        {
          "internalType": "address",
          "name": "",
          "type": "address"
        }
      ],
      "stateMutability": "view",
      "type": "function"
    },
    {
      "inputs": [],
      "name": "MAX",
      "outputs": [
        {
          "internalType": "uint256",
          "name": "",
          "type": "uint256"
        }
      ],
      "stateMutability": "view",
      "type": "function"
    },
    {
      "inputs": [
        {
          "internalType": "uint256",
          "name": "deadline",
          "type": "uint256"
        },
        {
          "internalType": "bytes[]",
          "name": "data",
          "type": "bytes[]"
        },
        {
          "internalType": "contract IERC20",
          "name": "sellToken",
          "type": "address"
        },
        {
          "internalType": "address",
          "name": "buyToken",
          "type": "address"
        },
        {
          "internalType": "uint256",
          "name": "sellAmount",
          "type": "uint256"
        },
        {
          "internalType": "bool",
          "name": "isNative",
          "type": "bool"
        }
      ],
      "name": "multiTrades",
      "outputs": [
        {
          "internalType": "address",
          "name": "",
          "type": "address"
        },
        {
          "internalType": "uint256",
          "name": "",
          "type": "uint256"
        }
      ],
      "stateMutability": "payable",
      "type": "function"
    },
    {
      "inputs": [],
      "name": "swaprouter02",
      "outputs": [
        {
          "internalType": "contract ISwapRouter2",
          "name": "",
          "type": "address"
        }
      ],
      "stateMutability": "view",
      "type": "function"
    },
    {
      "inputs": [
        {
          "components": [
            {
              "internalType": "bytes",
              "name": "path",
              "type": "bytes"
            },
            {
              "internalType": "address",
              "name": "recipient",
              "type": "address"
            },
            {
              "internalType": "uint256",
              "name": "amountIn",
              "type": "uint256"
            },
            {
              "internalType": "uint256",
              "name": "amountOutMinimum",
              "type": "uint256"
            }
          ],
          "internalType": "struct ISwapRouter2.ExactInputParams",
          "name": "params",
          "type": "tuple"
        },
        {
          "internalType": "bool",
          "name": "isNative",
          "type": "bool"
        }
      ],
      "name": "tradeInput",
      "outputs": [
        {
          "internalType": "address",
          "name": "",
          "type": "address"
        },
        {
          "internalType": "uint256",
          "name": "",
          "type": "uint256"
        }
      ],
      "stateMutability": "payable",
      "type": "function"
    },
    {
      "inputs": [
        {
          "components": [
            {
              "internalType": "address",
              "name": "tokenIn",
              "type": "address"
            },
            {
              "internalType": "address",
              "name": "tokenOut",
              "type": "address"
            },
            {
              "internalType": "uint24",
              "name": "fee",
              "type": "uint24"
            },
            {
              "internalType": "address",
              "name": "recipient",
              "type": "address"
            },
            {
              "internalType": "uint256",
              "name": "amountIn",
              "type": "uint256"
            },
            {
              "internalType": "uint256",
              "name": "amountOutMinimum",
              "type": "uint256"
            },
            {
              "internalType": "uint160",
              "name": "sqrtPriceLimitX96",
              "type": "uint160"
            }
          ],
          "internalType": "struct ISwapRouter2.ExactInputSingleParams",
          "name": "params",
          "type": "tuple"
        },
        {
          "internalType": "bool",
          "name": "isNative",
          "type": "bool"
        }
      ],
      "name": "tradeInputSingle",
      "outputs": [
        {
          "internalType": "address",
          "name": "",
          "type": "address"
        },
        {
          "internalType": "uint256",
          "name": "",
          "type": "uint256"
        }
      ],
      "stateMutability": "payable",
      "type": "function"
    },
    {
      "inputs": [],
      "name": "wmatic",
      "outputs": [
        {
          "internalType": "contract Wmatic",
          "name": "",
          "type": "address"
        }
      ],
      "stateMutability": "view",
      "type": "function"
    },
    {
      "stateMutability": "payable",
      "type": "receive"
    }
  ],
  "transactionHash": "0x7db962cd2d1efda489dc7968a939498f9188bf816da9af018fb8a16c8a6d7b58",
  "args": [
    "0x68b3465833fb72A70ecDF485E0e4C7bD8665Fc45"
  ],
  "numDeployments": 1,
  "solcInputHash": "95ba9b77ffe12d8c5ee97c5b61a9bc05",
  "bytecode": "0x60806040526040516113a93803806113a9833981016040819052610022916100de565b600080546001600160a01b0319166001600160a01b0383811691909117808355604080516312a9293f60e21b815290519190921692634aa4a4fc92600480820193602093909283900390910190829087803b15801561008057600080fd5b505af1158015610094573d6000803e3d6000fd5b505050506040513d601f19601f820116820180604052508101906100b891906100de565b600180546001600160a01b0319166001600160a01b039290921691909117905550610119565b6000602082840312156100ef578081fd5b81516100fa81610101565b9392505050565b6001600160a01b038116811461011657600080fd5b50565b611281806101286000396000f3fe6080604052600436106100745760003560e01c806392171fd81161004e57806392171fd8146100e1578063c8dc75e6146100f4578063d49d518114610107578063fb41be16146101295761007b565b8063421f4388146100805780636b150c3c146100aa57806372e94bf6146100cc5761007b565b3661007b57005b600080fd5b61009361008e366004610d7b565b61013e565b6040516100a1929190610eea565b60405180910390f35b3480156100b657600080fd5b506100bf610252565b6040516100a19190610ebc565b3480156100d857600080fd5b506100bf610261565b6100936100ef366004610dc4565b610266565b610093610102366004610d2b565b61037a565b34801561011357600080fd5b5061011c610510565b6040516100a1919061110c565b34801561013557600080fd5b506100bf610516565b60008061015b6101516020860186610c0c565b8560800135610525565b600080546040517f04e45aaf0000000000000000000000000000000000000000000000000000000081526001600160a01b03909116906304e45aaf9034906101a7908990600401611069565b6020604051808303818588803b1580156101c057600080fd5b505af11580156101d4573d6000803e3d6000fd5b50505050506040513d601f19601f820116820180604052508101906101f99190610dac565b90508460a001358110156102285760405162461bcd60e51b815260040161021f90610fce565b60405180910390fd5b600061024461023d6040880160208901610c0c565b8387610659565b9350909150505b9250929050565b6000546001600160a01b031681565b600081565b6000806102738685610525565b600080546040517f5ae401dc00000000000000000000000000000000000000000000000000000000815282916001600160a01b031690635ae401dc9034906102c3908f908f908f90600401611115565b6000604051808303818588803b1580156102dc57600080fd5b505af11580156102f0573d6000803e3d6000fd5b50505050506040513d6000823e601f3d908101601f191682016040526103199190810190610c28565b905060005b815181101561035a5781818151811061033357fe5b602002602001015180602001905181019061034e9190610dac565b9092019160010161031e565b506000610368888488610659565b9c929b50919950505050505050505050565b600080806103c561038b8680611185565b8080601f01602080910402602001604051908101604052809392919081815260200183838082843760009201919091525061071392505050565b505090506103d7818660400135610525565b600080546040517fb858183f0000000000000000000000000000000000000000000000000000000081526001600160a01b039091169063b858183f903490610423908a90600401611005565b6020604051808303818588803b15801561043c57600080fd5b505af1158015610450573d6000803e3d6000fd5b50505050506040513d601f19601f820116820180604052508101906104759190610dac565b905060006104838780611185565b8080601f01602080910402602001604051908101604052809392919081815260200183838082843760009201829052509394505050505b60006104c583610744565b905080156104dd576104d683610750565b92506104f1565b6104e683610713565b5092506104f7915050565b506104ba565b610502818489610659565b989297509195505050505050565b60001981565b6001546001600160a01b031681565b341580156105ce57506000546040517fdd62ed3e00000000000000000000000000000000000000000000000000000000815282916001600160a01b038086169263dd62ed3e9261057c923092911690600401610ed0565b60206040518083038186803b15801561059457600080fd5b505afa1580156105a8573d6000803e3d6000fd5b505050506040513d601f19601f820116820180604052508101906105cc9190610dac565b105b15610655576000546040517f095ea7b30000000000000000000000000000000000000000000000000000000081526001600160a01b038481169263095ea7b392610622929091169060001990600401610eea565b600060405180830381600087803b15801561063c57600080fd5b505af1158015610650573d6000803e3d6000fd5b505050505b5050565b6001546000906001600160a01b0385811691161480156106765750815b15610709576001546040517f2e1a7d4d0000000000000000000000000000000000000000000000000000000081526001600160a01b0390911690632e1a7d4d906106c490869060040161110c565b600060405180830381600087803b1580156106de57600080fd5b505af11580156106f2573d6000803e3d6000fd5b5050505060009050610704818461076d565b61070c565b50825b9392505050565b6000808061072184826108ba565b925061072e846014610986565b905061073b8460176108ba565b91509193909250565b8051604211155b919050565b805160609061076790839060179060161901610a42565b92915050565b6001600160a01b03821661081d578047101561079b5760405162461bcd60e51b815260040161021f90610f71565b6000336001600160a01b0316826040516107b490610eb9565b60006040518083038185875af1925050503d80600081146107f1576040519150601f19603f3d011682016040523d82523d6000602084013e6107f6565b606091505b50509050806108175760405162461bcd60e51b815260040161021f90610f3a565b50610655565b6040517fa9059cbb0000000000000000000000000000000000000000000000000000000081526001600160a01b0383169063a9059cbb906108649033908590600401610eea565b600060405180830381600087803b15801561087e57600080fd5b505af1158015610892573d6000803e3d6000fd5b5050505061089e610bbd565b6106555760405162461bcd60e51b815260040161021f90610f03565b600081826014011015610914576040805162461bcd60e51b815260206004820152601260248201527f746f416464726573735f6f766572666c6f770000000000000000000000000000604482015290519081900360640190fd5b816014018351101561096d576040805162461bcd60e51b815260206004820152601560248201527f746f416464726573735f6f75744f66426f756e64730000000000000000000000604482015290519081900360640190fd5b5001602001516c01000000000000000000000000900490565b6000818260030110156109e0576040805162461bcd60e51b815260206004820152601160248201527f746f55696e7432345f6f766572666c6f77000000000000000000000000000000604482015290519081900360640190fd5b8160030183511015610a39576040805162461bcd60e51b815260206004820152601460248201527f746f55696e7432345f6f75744f66426f756e6473000000000000000000000000604482015290519081900360640190fd5b50016003015190565b60608182601f011015610a9c576040805162461bcd60e51b815260206004820152600e60248201527f736c6963655f6f766572666c6f77000000000000000000000000000000000000604482015290519081900360640190fd5b828284011015610af3576040805162461bcd60e51b815260206004820152600e60248201527f736c6963655f6f766572666c6f77000000000000000000000000000000000000604482015290519081900360640190fd5b81830184511015610b4b576040805162461bcd60e51b815260206004820152601160248201527f736c6963655f6f75744f66426f756e6473000000000000000000000000000000604482015290519081900360640190fd5b606082158015610b6a5760405191506000825260208201604052610bb4565b6040519150601f8416801560200281840101858101878315602002848b0101015b81831015610ba3578051835260209283019201610b8b565b5050858452601f01601f1916604052505b50949350505050565b6000803d8015610bd45760208114610bdd57610be9565b60019150610be9565b60206000803e60005191505b501515905090565b803561074b81611233565b8035801515811461074b57600080fd5b600060208284031215610c1d578081fd5b813561070c81611233565b60006020808385031215610c3a578182fd5b825167ffffffffffffffff80821115610c51578384fd5b8185019150601f8681840112610c65578485fd5b825182811115610c7157fe5b610c7e85868302016111ca565b81815285810190858701885b84811015610d1b57815188018c603f820112610ca4578a8bfd5b8981015188811115610cb257fe5b610cc3818901601f19168c016111ca565b81815260408f81848601011115610cd8578d8efd5b8d5b83811015610cf5578481018201518382018f01528d01610cda565b83811115610d05578e8e85850101525b5050865250509288019290880190600101610c8a565b50909a9950505050505050505050565b60008060408385031215610d3d578081fd5b823567ffffffffffffffff811115610d53578182fd5b830160808186031215610d64578182fd5b9150610d7260208401610bfc565b90509250929050565b600080828403610100811215610d8f578283fd5b60e0811215610d9c578283fd5b50829150610d7260e08401610bfc565b600060208284031215610dbd578081fd5b5051919050565b600080600080600080600060c0888a031215610dde578283fd5b87359650602088013567ffffffffffffffff80821115610dfc578485fd5b818a0191508a601f830112610e0f578485fd5b813581811115610e1d578586fd5b8b60208083028501011115610e30578586fd5b602083019850809750505050610e4860408901610bf1565b9350610e5660608901610bf1565b925060808801359150610e6b60a08901610bfc565b905092959891949750929550565b6001600160a01b03169052565b60008284528282602086013780602084860101526020601f19601f85011685010190509392505050565b62ffffff169052565b90565b6001600160a01b0391909116815260200190565b6001600160a01b0392831681529116602082015260400190565b6001600160a01b03929092168252602082015260400190565b60208082526015908201527f7472616e73666572204552433230206661696c65640000000000000000000000604082015260600190565b60208082526016908201527f7472616e73666572206e6174697665206661696c656400000000000000000000604082015260600190565b60208082526022908201527f72652d7472616e7366657220616d6f756e7420657863656564732062616c616e60408201527f6365000000000000000000000000000000000000000000000000000000000000606082015260800190565b6020808252601a908201527f6c6f776572207468616e206578706563746564206f7574707574000000000000604082015260600190565b60006020825261101583846111ee565b6080602085015261102a60a085018284610e86565b915050602084013561103b81611233565b6001600160a01b03811660408501525060408401356060840152606084013560808401528091505092915050565b60e08101823561107881611233565b6001600160a01b03908116835260208401359061109482611233565b166020830152604083013562ffffff811681146110b057600080fd5b6110bd6040840182610eb0565b506110ca60608401610bf1565b6110d76060840182610e79565b506080830135608083015260a083013560a08301526110f860c08401610bf1565b61110560c0840182610e79565b5092915050565b90815260200190565b6000604082018583526020604081850152818583526060850190506060828702860101925086845b8781101561117757868503605f19018352611158828a6111ee565b611163878284610e86565b96505050918301919083019060010161113d565b509298975050505050505050565b6000808335601e1984360301811261119b578283fd5b83018035915067ffffffffffffffff8211156111b5578283fd5b60200191503681900382131561024b57600080fd5b60405181810167ffffffffffffffff811182821017156111e657fe5b604052919050565b6000808335601e19843603018112611204578283fd5b830160208101925035905067ffffffffffffffff81111561122457600080fd5b80360383131561024b57600080fd5b6001600160a01b038116811461124857600080fd5b5056fea264697066735822122076e28b2bceea3ece13bee501609f392f74b139c3acc6baf480adca849759046464736f6c63430007060033",
  "devdoc": {
    "kind": "dev",
    "methods": {
      "constructor": {
        "details": "Contract constructor",
        "params": {
          "_swaproute02": "uniswap routes contract address"
        }
      }
    },
    "version": 1
  },
  "userdoc": {
    "kind": "user",
    "methods": {},
    "version": 1
  },
  "storageLayout": {
    "storage": [
      {
        "astId": 1682,
        "contract": "contracts/uniswap_trade.sol:UniswapProxy",
        "label": "swaprouter02",
        "offset": 0,
        "slot": "0",
        "type": "t_contract(ISwapRouter2)1659"
      },
      {
        "astId": 1684,
        "contract": "contracts/uniswap_trade.sol:UniswapProxy",
        "label": "wmatic",
        "offset": 0,
        "slot": "1",
        "type": "t_contract(Wmatic)1667"
      }
    ],
    "types": {
      "t_contract(ISwapRouter2)1659": {
        "encoding": "inplace",
        "label": "contract ISwapRouter2",
        "numberOfBytes": "20"
      },
      "t_contract(Wmatic)1667": {
        "encoding": "inplace",
        "label": "contract Wmatic",
        "numberOfBytes": "20"
      }
    }
  }
}