{
  "address": "0x1ec63144756FC4905341ef5907fB7873cCDdb798",
  "abi": [
    {
      "anonymous": false,
      "inputs": [
        {
          "indexed": false,
          "internalType": "address",
          "name": "token",
          "type": "address"
        },
        {
          "indexed": false,
          "internalType": "string",
          "name": "incognitoAddress",
          "type": "string"
        },
        {
          "indexed": false,
          "internalType": "uint256",
          "name": "amount",
          "type": "uint256"
        }
      ],
      "name": "Deposit",
      "type": "event"
    },
    {
      "anonymous": false,
      "inputs": [
        {
          "indexed": false,
          "internalType": "address",
          "name": "token",
          "type": "address"
        },
        {
          "indexed": false,
          "internalType": "string",
          "name": "incognitoAddress",
          "type": "string"
        },
        {
          "indexed": false,
          "internalType": "uint256",
          "name": "amount",
          "type": "uint256"
        },
        {
          "indexed": false,
          "internalType": "uint256",
          "name": "depositID",
          "type": "uint256"
        }
      ],
      "name": "DepositV2",
      "type": "event"
    },
    {
      "anonymous": false,
      "inputs": [
        {
          "indexed": false,
          "internalType": "bytes32",
          "name": "id",
          "type": "bytes32"
        },
        {
          "indexed": false,
          "internalType": "uint256",
          "name": "phaseID",
          "type": "uint256"
        },
        {
          "indexed": false,
          "internalType": "bytes",
          "name": "errorData",
          "type": "bytes"
        }
      ],
      "name": "ExecuteFnLog",
      "type": "event"
    },
    {
      "anonymous": false,
      "inputs": [
        {
          "indexed": false,
          "internalType": "address",
          "name": "token",
          "type": "address"
        },
        {
          "indexed": false,
          "internalType": "bytes",
          "name": "redepositIncAddress",
          "type": "bytes"
        },
        {
          "indexed": false,
          "internalType": "uint256",
          "name": "amount",
          "type": "uint256"
        },
        {
          "indexed": false,
          "internalType": "bytes32",
          "name": "itx",
          "type": "bytes32"
        }
      ],
      "name": "Redeposit",
      "type": "event"
    },
    {
      "anonymous": false,
      "inputs": [
        {
          "indexed": false,
          "internalType": "address",
          "name": "newIncognitoProxy",
          "type": "address"
        }
      ],
      "name": "UpdateIncognitoProxy",
      "type": "event"
    },
    {
      "anonymous": false,
      "inputs": [
        {
          "indexed": false,
          "internalType": "address[]",
          "name": "assets",
          "type": "address[]"
        },
        {
          "indexed": false,
          "internalType": "uint256[]",
          "name": "amounts",
          "type": "uint256[]"
        }
      ],
      "name": "UpdateTokenTotal",
      "type": "event"
    },
    {
      "anonymous": false,
      "inputs": [
        {
          "indexed": false,
          "internalType": "address",
          "name": "token",
          "type": "address"
        },
        {
          "indexed": false,
          "internalType": "address",
          "name": "to",
          "type": "address"
        },
        {
          "indexed": false,
          "internalType": "uint256",
          "name": "amount",
          "type": "uint256"
        }
      ],
      "name": "Withdraw",
      "type": "event"
    },
    {
      "inputs": [],
      "name": "BURN_CALL_REQUEST_METADATA_TYPE",
      "outputs": [
        {
          "internalType": "uint8",
          "name": "",
          "type": "uint8"
        }
      ],
      "stateMutability": "view",
      "type": "function"
    },
    {
      "inputs": [],
      "name": "BURN_REQUEST_METADATA_TYPE",
      "outputs": [
        {
          "internalType": "uint8",
          "name": "",
          "type": "uint8"
        }
      ],
      "stateMutability": "view",
      "type": "function"
    },
    {
      "inputs": [],
      "name": "BURN_TO_CONTRACT_REQUEST_METADATA_TYPE",
      "outputs": [
        {
          "internalType": "uint8",
          "name": "",
          "type": "uint8"
        }
      ],
      "stateMutability": "view",
      "type": "function"
    },
    {
      "inputs": [],
      "name": "CURRENT_NETWORK_ID",
      "outputs": [
        {
          "internalType": "uint8",
          "name": "",
          "type": "uint8"
        }
      ],
      "stateMutability": "view",
      "type": "function"
    },
    {
      "inputs": [],
      "name": "ETH_TOKEN",
      "outputs": [
        {
          "internalType": "address",
          "name": "",
          "type": "address"
        }
      ],
      "stateMutability": "view",
      "type": "function"
    },
    {
      "inputs": [
        {
          "internalType": "address",
          "name": "token",
          "type": "address"
        },
        {
          "internalType": "address",
          "name": "to",
          "type": "address"
        },
        {
          "internalType": "uint256",
          "name": "amount",
          "type": "uint256"
        },
        {
          "internalType": "bytes",
          "name": "externalCalldata",
          "type": "bytes"
        },
        {
          "internalType": "address",
          "name": "redepositToken",
          "type": "address"
        }
      ],
      "name": "_callExternal",
      "outputs": [
        {
          "internalType": "uint256",
          "name": "",
          "type": "uint256"
        }
      ],
      "stateMutability": "nonpayable",
      "type": "function"
    },
    {
      "inputs": [
        {
          "internalType": "address",
          "name": "token",
          "type": "address"
        },
        {
          "internalType": "address payable",
          "name": "to",
          "type": "address"
        },
        {
          "internalType": "uint256",
          "name": "amount",
          "type": "uint256"
        }
      ],
      "name": "_transferExternal",
      "outputs": [],
      "stateMutability": "nonpayable",
      "type": "function"
    },
    {
      "inputs": [
        {
          "internalType": "address",
          "name": "token",
          "type": "address"
        }
      ],
      "name": "balanceOf",
      "outputs": [
        {
          "internalType": "uint256",
          "name": "",
          "type": "uint256"
        }
      ],
      "stateMutability": "view",
      "type": "function"
    },
    {
      "inputs": [
        {
          "internalType": "string",
          "name": "incognitoAddress",
          "type": "string"
        },
        {
          "internalType": "bytes32",
          "name": "txId",
          "type": "bytes32"
        },
        {
          "internalType": "bytes",
          "name": "signData",
          "type": "bytes"
        }
      ],
      "name": "deposit",
      "outputs": [],
      "stateMutability": "payable",
      "type": "function"
    },
    {
      "inputs": [
        {
          "internalType": "address",
          "name": "token",
          "type": "address"
        },
        {
          "internalType": "uint256",
          "name": "amount",
          "type": "uint256"
        },
        {
          "internalType": "string",
          "name": "incognitoAddress",
          "type": "string"
        },
        {
          "internalType": "bytes32",
          "name": "txId",
          "type": "bytes32"
        },
        {
          "internalType": "bytes",
          "name": "signData",
          "type": "bytes"
        }
      ],
      "name": "depositERC20",
      "outputs": [],
      "stateMutability": "nonpayable",
      "type": "function"
    },
    {
      "inputs": [
        {
          "internalType": "address",
          "name": "token",
          "type": "address"
        },
        {
          "internalType": "uint256",
          "name": "amount",
          "type": "uint256"
        },
        {
          "internalType": "string",
          "name": "incognitoAddress",
          "type": "string"
        }
      ],
      "name": "depositERC20_V2",
      "outputs": [],
      "stateMutability": "nonpayable",
      "type": "function"
    },
    {
      "inputs": [
        {
          "internalType": "string",
          "name": "incognitoAddress",
          "type": "string"
        }
      ],
      "name": "deposit_V2",
      "outputs": [],
      "stateMutability": "payable",
      "type": "function"
    },
    {
      "inputs": [
        {
          "internalType": "address",
          "name": "token",
          "type": "address"
        },
        {
          "internalType": "uint256",
          "name": "amount",
          "type": "uint256"
        },
        {
          "internalType": "address",
          "name": "recipientToken",
          "type": "address"
        },
        {
          "internalType": "address",
          "name": "exchangeAddress",
          "type": "address"
        },
        {
          "internalType": "bytes",
          "name": "callData",
          "type": "bytes"
        },
        {
          "internalType": "bytes",
          "name": "timestamp",
          "type": "bytes"
        },
        {
          "internalType": "bytes",
          "name": "signData",
          "type": "bytes"
        }
      ],
      "name": "execute",
      "outputs": [],
      "stateMutability": "payable",
      "type": "function"
    },
    {
      "inputs": [
        {
          "internalType": "bytes",
          "name": "inst",
          "type": "bytes"
        },
        {
          "internalType": "uint256",
          "name": "heights",
          "type": "uint256"
        },
        {
          "internalType": "bytes32[]",
          "name": "instPaths",
          "type": "bytes32[]"
        },
        {
          "internalType": "bool[]",
          "name": "instPathIsLefts",
          "type": "bool[]"
        },
        {
          "internalType": "bytes32",
          "name": "instRoots",
          "type": "bytes32"
        },
        {
          "internalType": "bytes32",
          "name": "blkData",
          "type": "bytes32"
        },
        {
          "internalType": "uint256[]",
          "name": "sigIdxs",
          "type": "uint256[]"
        },
        {
          "internalType": "uint8[]",
          "name": "sigVs",
          "type": "uint8[]"
        },
        {
          "internalType": "bytes32[]",
          "name": "sigRs",
          "type": "bytes32[]"
        },
        {
          "internalType": "bytes32[]",
          "name": "sigSs",
          "type": "bytes32[]"
        }
      ],
      "name": "executeWithBurnProof",
      "outputs": [],
      "stateMutability": "nonpayable",
      "type": "function"
    },
    {
      "inputs": [],
      "name": "executor",
      "outputs": [
        {
          "internalType": "address",
          "name": "",
          "type": "address"
        }
      ],
      "stateMutability": "view",
      "type": "function"
    },
    {
      "inputs": [
        {
          "internalType": "address",
          "name": "token",
          "type": "address"
        }
      ],
      "name": "getDecimals",
      "outputs": [
        {
          "internalType": "uint8",
          "name": "",
          "type": "uint8"
        }
      ],
      "stateMutability": "view",
      "type": "function"
    },
    {
      "inputs": [
        {
          "internalType": "address",
          "name": "token",
          "type": "address"
        },
        {
          "internalType": "address",
          "name": "owner",
          "type": "address"
        }
      ],
      "name": "getDepositedBalance",
      "outputs": [
        {
          "internalType": "uint256",
          "name": "",
          "type": "uint256"
        }
      ],
      "stateMutability": "view",
      "type": "function"
    },
    {
      "inputs": [
        {
          "internalType": "address",
          "name": "_prevVault",
          "type": "address"
        },
        {
          "internalType": "address",
          "name": "_regulator",
          "type": "address"
        },
        {
          "internalType": "address",
          "name": "_executor",
          "type": "address"
        }
      ],
      "name": "initialize",
      "outputs": [],
      "stateMutability": "nonpayable",
      "type": "function"
    },
    {
      "inputs": [],
      "name": "isInitialized",
      "outputs": [
        {
          "internalType": "bool",
          "name": "",
          "type": "bool"
        }
      ],
      "stateMutability": "view",
      "type": "function"
    },
    {
      "inputs": [
        {
          "internalType": "bytes32",
          "name": "hash",
          "type": "bytes32"
        }
      ],
      "name": "isSigDataUsed",
      "outputs": [
        {
          "internalType": "bool",
          "name": "",
          "type": "bool"
        }
      ],
      "stateMutability": "view",
      "type": "function"
    },
    {
      "inputs": [
        {
          "internalType": "bytes32",
          "name": "hash",
          "type": "bytes32"
        }
      ],
      "name": "isWithdrawed",
      "outputs": [
        {
          "internalType": "bool",
          "name": "",
          "type": "bool"
        }
      ],
      "stateMutability": "view",
      "type": "function"
    },
    {
      "inputs": [
        {
          "internalType": "address",
          "name": "",
          "type": "address"
        },
        {
          "internalType": "address",
          "name": "",
          "type": "address"
        }
      ],
      "name": "migration",
      "outputs": [
        {
          "internalType": "bool",
          "name": "",
          "type": "bool"
        }
      ],
      "stateMutability": "view",
      "type": "function"
    },
    {
      "inputs": [],
      "name": "notEntered",
      "outputs": [
        {
          "internalType": "bool",
          "name": "",
          "type": "bool"
        }
      ],
      "stateMutability": "view",
      "type": "function"
    },
    {
      "inputs": [
        {
          "internalType": "bytes",
          "name": "inst",
          "type": "bytes"
        }
      ],
      "name": "parseBurnInst",
      "outputs": [
        {
          "components": [
            {
              "internalType": "uint8",
              "name": "meta",
              "type": "uint8"
            },
            {
              "internalType": "uint8",
              "name": "shard",
              "type": "uint8"
            },
            {
              "internalType": "address",
              "name": "token",
              "type": "address"
            },
            {
              "internalType": "address payable",
              "name": "to",
              "type": "address"
            },
            {
              "internalType": "uint256",
              "name": "amount",
              "type": "uint256"
            },
            {
              "internalType": "bytes32",
              "name": "itx",
              "type": "bytes32"
            }
          ],
          "internalType": "struct VaultPLG.BurnInstData",
          "name": "",
          "type": "tuple"
        }
      ],
      "stateMutability": "pure",
      "type": "function"
    },
    {
      "inputs": [
        {
          "internalType": "bytes",
          "name": "inst",
          "type": "bytes"
        }
      ],
      "name": "parseCalldataFromBurnInst",
      "outputs": [
        {
          "components": [
            {
              "internalType": "uint8",
              "name": "meta",
              "type": "uint8"
            },
            {
              "internalType": "uint8",
              "name": "shard",
              "type": "uint8"
            },
            {
              "internalType": "address",
              "name": "token",
              "type": "address"
            },
            {
              "internalType": "address payable",
              "name": "to",
              "type": "address"
            },
            {
              "internalType": "uint256",
              "name": "amount",
              "type": "uint256"
            },
            {
              "internalType": "bytes32",
              "name": "itx",
              "type": "bytes32"
            }
          ],
          "internalType": "struct VaultPLG.BurnInstData",
          "name": "",
          "type": "tuple"
        },
        {
          "components": [
            {
              "internalType": "address",
              "name": "redepositToken",
              "type": "address"
            },
            {
              "internalType": "bytes",
              "name": "redepositIncAddress",
              "type": "bytes"
            },
            {
              "internalType": "address payable",
              "name": "withdrawAddress",
              "type": "address"
            }
          ],
          "internalType": "struct VaultPLG.RedepositOptions",
          "name": "",
          "type": "tuple"
        },
        {
          "internalType": "bytes",
          "name": "",
          "type": "bytes"
        }
      ],
      "stateMutability": "pure",
      "type": "function"
    },
    {
      "inputs": [],
      "name": "prevVault",
      "outputs": [
        {
          "internalType": "contract Withdrawable",
          "name": "",
          "type": "address"
        }
      ],
      "stateMutability": "view",
      "type": "function"
    },
    {
      "inputs": [],
      "name": "regulator",
      "outputs": [
        {
          "internalType": "address",
          "name": "",
          "type": "address"
        }
      ],
      "stateMutability": "view",
      "type": "function"
    },
    {
      "inputs": [
        {
          "internalType": "string",
          "name": "incognitoAddress",
          "type": "string"
        },
        {
          "internalType": "address",
          "name": "token",
          "type": "address"
        },
        {
          "internalType": "uint256",
          "name": "amount",
          "type": "uint256"
        },
        {
          "internalType": "bytes",
          "name": "signData",
          "type": "bytes"
        },
        {
          "internalType": "bytes",
          "name": "timestamp",
          "type": "bytes"
        },
        {
          "internalType": "bytes32",
          "name": "txId",
          "type": "bytes32"
        },
        {
          "internalType": "bytes",
          "name": "regulatorSig",
          "type": "bytes"
        }
      ],
      "name": "requestWithdraw",
      "outputs": [],
      "stateMutability": "nonpayable",
      "type": "function"
    },
    {
      "inputs": [
        {
          "internalType": "address",
          "name": "_regulator",
          "type": "address"
        }
      ],
      "name": "setRegulator",
      "outputs": [],
      "stateMutability": "nonpayable",
      "type": "function"
    },
    {
      "inputs": [
        {
          "internalType": "bytes32",
          "name": "",
          "type": "bytes32"
        }
      ],
      "name": "sigDataUsed",
      "outputs": [
        {
          "internalType": "bool",
          "name": "",
          "type": "bool"
        }
      ],
      "stateMutability": "view",
      "type": "function"
    },
    {
      "inputs": [
        {
          "internalType": "bytes",
          "name": "signData",
          "type": "bytes"
        },
        {
          "internalType": "bytes32",
          "name": "hash",
          "type": "bytes32"
        }
      ],
      "name": "sigToAddress",
      "outputs": [
        {
          "internalType": "address",
          "name": "",
          "type": "address"
        }
      ],
      "stateMutability": "pure",
      "type": "function"
    },
    {
      "inputs": [],
      "name": "storageLayoutVersion",
      "outputs": [
        {
          "internalType": "uint256",
          "name": "",
          "type": "uint256"
        }
      ],
      "stateMutability": "view",
      "type": "function"
    },
    {
      "inputs": [
        {
          "internalType": "bytes",
          "name": "inst",
          "type": "bytes"
        },
        {
          "internalType": "uint256",
          "name": "heights",
          "type": "uint256"
        },
        {
          "internalType": "bytes32[]",
          "name": "instPaths",
          "type": "bytes32[]"
        },
        {
          "internalType": "bool[]",
          "name": "instPathIsLefts",
          "type": "bool[]"
        },
        {
          "internalType": "bytes32",
          "name": "instRoots",
          "type": "bytes32"
        },
        {
          "internalType": "bytes32",
          "name": "blkData",
          "type": "bytes32"
        },
        {
          "internalType": "uint256[]",
          "name": "sigIdxs",
          "type": "uint256[]"
        },
        {
          "internalType": "uint8[]",
          "name": "sigVs",
          "type": "uint8[]"
        },
        {
          "internalType": "bytes32[]",
          "name": "sigRs",
          "type": "bytes32[]"
        },
        {
          "internalType": "bytes32[]",
          "name": "sigSs",
          "type": "bytes32[]"
        }
      ],
      "name": "submitBurnProof",
      "outputs": [],
      "stateMutability": "nonpayable",
      "type": "function"
    },
    {
      "inputs": [
        {
          "internalType": "address",
          "name": "",
          "type": "address"
        }
      ],
      "name": "totalDepositedToSCAmount",
      "outputs": [
        {
          "internalType": "uint256",
          "name": "",
          "type": "uint256"
        }
      ],
      "stateMutability": "view",
      "type": "function"
    },
    {
      "inputs": [
        {
          "internalType": "address[]",
          "name": "assets",
          "type": "address[]"
        },
        {
          "internalType": "uint256[]",
          "name": "amounts",
          "type": "uint256[]"
        }
      ],
      "name": "updateAssets",
      "outputs": [
        {
          "internalType": "bool",
          "name": "",
          "type": "bool"
        }
      ],
      "stateMutability": "nonpayable",
      "type": "function"
    },
    {
      "inputs": [
        {
          "internalType": "address",
          "name": "_regulator",
          "type": "address"
        },
        {
          "internalType": "address",
          "name": "_executor",
          "type": "address"
        }
      ],
      "name": "upgradeVaultStorage",
      "outputs": [],
      "stateMutability": "nonpayable",
      "type": "function"
    },
    {
      "inputs": [
        {
          "internalType": "bytes",
          "name": "inst",
          "type": "bytes"
        },
        {
          "internalType": "uint256",
          "name": "heights",
          "type": "uint256"
        },
        {
          "internalType": "bytes32[]",
          "name": "instPaths",
          "type": "bytes32[]"
        },
        {
          "internalType": "bool[]",
          "name": "instPathIsLefts",
          "type": "bool[]"
        },
        {
          "internalType": "bytes32",
          "name": "instRoots",
          "type": "bytes32"
        },
        {
          "internalType": "bytes32",
          "name": "blkData",
          "type": "bytes32"
        },
        {
          "internalType": "uint256[]",
          "name": "sigIdxs",
          "type": "uint256[]"
        },
        {
          "internalType": "uint8[]",
          "name": "sigVs",
          "type": "uint8[]"
        },
        {
          "internalType": "bytes32[]",
          "name": "sigRs",
          "type": "bytes32[]"
        },
        {
          "internalType": "bytes32[]",
          "name": "sigSs",
          "type": "bytes32[]"
        }
      ],
      "name": "withdraw",
      "outputs": [],
      "stateMutability": "nonpayable",
      "type": "function"
    },
    {
      "inputs": [
        {
          "internalType": "address",
          "name": "",
          "type": "address"
        },
        {
          "internalType": "address",
          "name": "",
          "type": "address"
        }
      ],
      "name": "withdrawRequests",
      "outputs": [
        {
          "internalType": "uint256",
          "name": "",
          "type": "uint256"
        }
      ],
      "stateMutability": "view",
      "type": "function"
    },
    {
      "inputs": [
        {
          "internalType": "bytes32",
          "name": "",
          "type": "bytes32"
        }
      ],
      "name": "withdrawed",
      "outputs": [
        {
          "internalType": "bool",
          "name": "",
          "type": "bool"
        }
      ],
      "stateMutability": "view",
      "type": "function"
    },
    {
      "stateMutability": "payable",
      "type": "receive"
    }
  ],
  "transactionHash": "0xd99e6fdb297f423d31054ce64eb16a9d99f9356ccbb02b34032a9e431ee7e68f",
  "args": [],
  "numDeployments": 3,
  "solcInputHash": "98d3d53af8ca9ca925cd49aaac1f2d20",
  "bytecode": "0x608060405234801561001057600080fd5b506150d0806100206000396000f3fe6080604052600436106102a45760003560e01c80638588ccd61161016e578063cde0a4f8116100cb578063dd8fee141161007f578063f75b98ce11610064578063f75b98ce146106f6578063fa84702e14610716578063fee8efda1461072b576102ab565b8063dd8fee14146106c1578063e4bd7074146106d6576102ab565b8063d6a1fe3b116100b0578063d6a1fe3b14610677578063d7200eb11461068c578063dca40d9e146106a1576102ab565b8063cde0a4f814610637578063cf54aaa014610657576102ab565b8063bd835c4211610122578063c0c53b8b11610107578063c0c53b8b146105ef578063c34c08e51461060f578063c791d70514610624576102ab565b8063bd835c42146105ba578063bda9b509146105cf576102ab565b8063a3f5d8cc11610153578063a3f5d8cc14610565578063a73b15321461057a578063a807b5bb1461059a576102ab565b80638588ccd614610532578063995fac1114610545576102ab565b806358bc83371161021c5780636f2cbc48116101d057806373bf9651116101b557806373bf9651146104c5578063749c5f86146104e55780637e16e6e114610505576102ab565b80636f2cbc481461049057806370a08231146104a5576102ab565b80636304541c116102015780636304541c1461041457806365b5a00f1461044157806366945b3114610461576102ab565b806358bc8337146103df5780635c421b2f146103f4576102ab565b8063392e53cd116102735780633fec6b40116102585780633fec6b401461037d57806349c5ba23146103aa578063568c04fd146103bd576102ab565b8063392e53cd146103485780633ed1b3761461035d576102ab565b8063145e2a6b146102b05780631beb7de2146102d25780631ea1940e146102f25780631ed4276d14610328576102ab565b366102ab57005b600080fd5b3480156102bc57600080fd5b506102d06102cb366004613fde565b61074b565b005b3480156102de57600080fd5b506102d06102ed3660046145ae565b610834565b3480156102fe57600080fd5b5061031261030d366004614326565b610c91565b60405161031f9190614c1b565b60405180910390f35b34801561033457600080fd5b506103126103433660046142ad565b610ca6565b34801561035457600080fd5b50610312610ec7565b34801561036957600080fd5b506102d061037836600461437e565b610ed7565b34801561038957600080fd5b5061039d61039836600461456b565b611437565b60405161031f9190614a10565b6102d06103b836600461433e565b6114c6565b3480156103c957600080fd5b506103d26115ac565b60405161031f9190614fa7565b3480156103eb57600080fd5b5061039d6115b1565b34801561040057600080fd5b506102d061040f3660046141c0565b6115b6565b34801561042057600080fd5b5061043461042f366004613ee7565b611880565b60405161031f9190614cd3565b34801561044d57600080fd5b5061043461045c366004613fa6565b611892565b34801561046d57600080fd5b5061048161047c36600461433e565b6118af565b60405161031f93929190614eaa565b34801561049c57600080fd5b506103d2611a92565b3480156104b157600080fd5b506104346104c0366004613ee7565b611a97565b3480156104d157600080fd5b506102d06104e03660046145ae565b611b6b565b3480156104f157600080fd5b50610312610500366004614326565b611ee3565b34801561051157600080fd5b506105256105203660046144bd565b611fb3565b60405161031f9190614e9c565b6102d06105403660046140e7565b612035565b34801561055157600080fd5b50610312610560366004613fa6565b6124d4565b34801561057157600080fd5b506103126124f4565b34801561058657600080fd5b506102d0610595366004613fa6565b612504565b3480156105a657600080fd5b506102d06105b536600461421a565b6125a7565b3480156105c657600080fd5b506103d2612880565b3480156105db57600080fd5b506104346105ea366004614068565b612885565b3480156105fb57600080fd5b506102d061060a36600461401e565b612aa9565b34801561061b57600080fd5b5061039d612bb3565b6102d06106323660046147c8565b612bc2565b34801561064357600080fd5b506102d0610652366004613ee7565b612cd6565b34801561066357600080fd5b506103d2610672366004613ee7565b612d64565b34801561068357600080fd5b50610434612e1e565b34801561069857600080fd5b506103d2612e24565b3480156106ad57600080fd5b506103126106bc366004614326565b612e29565b3480156106cd57600080fd5b5061039d612e3e565b3480156106e257600080fd5b506103126106f1366004614326565b612e4d565b34801561070257600080fd5b50610434610711366004613fa6565b612ecd565b34801561072257600080fd5b5061039d612ff9565b34801561073757600080fd5b506102d06107463660046146e0565b613008565b3033146107586014613274565b9061077f5760405162461bcd60e51b81526004016107769190614d19565b60405180910390fd5b506001600160a01b03831661079d5761079882826133ce565b61082f565b60405163a9059cbb60e01b81526001600160a01b0384169063a9059cbb906107cb9085908590600401614a48565b600060405180830381600087803b1580156107e557600080fd5b505af11580156107f9573d6000803e3d6000fd5b5050505061080561346a565b61080f6004613274565b9061082d5760405162461bcd60e51b81526004016107769190614d19565b505b505050565b600554600160a01b900460ff1661084b6001613274565b906108695760405162461bcd60e51b81526004016107769190614d19565b506005805460ff60a01b191690558951608211156108876006613274565b906108a55760405162461bcd60e51b81526004016107769190614d19565b506108ae613c1d565b6108b78b611fb3565b805190915060ff1660991480156108d55750806020015160ff166001145b6108df6006613274565b906108fd5760405162461bcd60e51b81526004016107769190614d19565b5061090b8160a00151611ee3565b156109166005613274565b906109345760405162461bcd60e51b81526004016107769190614d19565b5060a081015160009081526020819052604090819020805460ff191660011790558101516001600160a01b03166109bf576040808201516001600160a01b0316600090815260046020522054608082015161098e9161349e565b47101561099b6007613274565b906109b95760405162461bcd60e51b81526004016107769190614d19565b50610ad1565b60006109ce8260400151612d64565b905060098160ff1611156109fb5760808201516109f59060081960ff841601600a0a613504565b60808301525b6040808301516001600160a01b03166000908152600460205220546080830151610a249161349e565b82604001516001600160a01b03166370a08231306040518263ffffffff1660e01b8152600401610a549190614a10565b60206040518083038186803b158015610a6c57600080fd5b505afa158015610a80573d6000803e3d6000fd5b505050506040513d601f19601f82011682018060405250810190610aa4919061483f565b1015610ab06007613274565b90610ace5760405162461bcd60e51b81526004016107769190614d19565b50505b610ae38b8b8b8b8b8b8b8b8b8b613566565b60408101516001600160a01b0316610b8c57600081606001516001600160a01b03168260800151604051610b1690614a0d565b60006040518083038185875af1925050503d8060008114610b53576040519150601f19603f3d011682016040523d82523d6000602084013e610b58565b606091505b5050905080610b676004613274565b90610b855760405162461bcd60e51b81526004016107769190614d19565b5050610c2a565b80604001516001600160a01b031663a9059cbb826060015183608001516040518363ffffffff1660e01b8152600401610bc6929190614a48565b600060405180830381600087803b158015610be057600080fd5b505af1158015610bf4573d6000803e3d6000fd5b50505050610c0061346a565b610c0a6004613274565b90610c285760405162461bcd60e51b81526004016107769190614d19565b505b7f9b1bfa7fa9ee420a16e124f794c35ac9f90472acc99140eb2f6447c714cad8eb816040015182606001518360800151604051610c6993929190614a24565b60405180910390a150506005805460ff60a01b1916600160a01b179055505050505050505050565b60016020526000908152604090205460ff1681565b6005546000906001600160a01b031615801590610ccd57506005546001600160a01b031633145b610cd7600c613274565b90610cf55760405162461bcd60e51b81526004016107769190614d19565b50838214610d03600a613274565b90610d215760405162461bcd60e51b81526004016107769190614d19565b50600560009054906101000a90046001600160a01b03166001600160a01b0316635c975abb6040518163ffffffff1660e01b815260040160206040518083038186803b158015610d7057600080fd5b505afa158015610d84573d6000803e3d6000fd5b505050506040513d601f19601f82011682018060405250810190610da8919061430a565b610db2600d613274565b90610dd05760405162461bcd60e51b81526004016107769190614d19565b5060005b84811015610e7e57610e37848483818110610deb57fe5b9050602002013560046000898986818110610e0257fe5b9050602002016020810190610e179190613ee7565b6001600160a01b031681526020810191909152604001600020549061349e565b60046000888885818110610e4757fe5b9050602002016020810190610e5c9190613ee7565b6001600160a01b03168152602081019190915260400160002055600101610dd4565b507f6a7fbbcddfd518bb8c56b28ac6c7acb0f7ca093ed232eb3306e53d14e469895f85858585604051610eb49493929190614b83565b60405180910390a1506001949350505050565b600554600160a81b900460ff1681565b600554600160a01b900460ff16610eee6001613274565b90610f0c5760405162461bcd60e51b81526004016107769190614d19565b506005805460ff60a01b19169055610f22613c1d565b610f2a613c52565b6060610f368e8e6118af565b925092509250610f498360a00151611ee3565b15610f546005613274565b90610f725760405162461bcd60e51b81526004016107769190614d19565b5060a083015160009081526020819052604090819020805460ff191660011790558301516001600160a01b0316610ffd576040808401516001600160a01b03166000908152600460205220546080840151610fcc9161349e565b471015610fd96007613274565b90610ff75760405162461bcd60e51b81526004016107769190614d19565b5061110f565b600061100c8460400151612d64565b905060098160ff1611156110395760808401516110339060081960ff841601600a0a613504565b60808501525b6040808501516001600160a01b031660009081526004602052205460808501516110629161349e565b84604001516001600160a01b03166370a08231306040518263ffffffff1660e01b81526004016110929190614a10565b60206040518083038186803b1580156110aa57600080fd5b505afa1580156110be573d6000803e3d6000fd5b505050506040513d601f19601f820116820180604052508101906110e2919061483f565b10156110ee6007613274565b9061110c5760405162461bcd60e51b81526004016107769190614d19565b50505b6111658e8e8080601f016020809104026020016040519081016040528093929190818152602001838380828437600081840152601f19601f820116905080830192505050505050508d8d8d8d8d8d8d8d8d613566565b60408084015160608501516080860151855193517fbda9b509000000000000000000000000000000000000000000000000000000008152309463bda9b509946111b8949093909290918891600401614a7b565b602060405180830381600087803b1580156111d257600080fd5b505af1925050508015611202575060408051601f3d908101601f191682019092526111ff9181019061483f565b60015b61129b573d808015611230576040519150601f19603f3d011682016040523d82523d6000602084013e611235565b606091505b506112528460400151846020015186608001518760a00151613661565b7fdbbb883f24557adf486292429863dcfd4ac5d4db168ae94921da8e3d9a95d4168460a0015160008360405161128a93929190614cdc565b60405180910390a150505050611417565b60408301516001600160a01b03166112ca576112c583600001518460200151838760a00151613661565b611412565b825160408085015190517f145e2a6b000000000000000000000000000000000000000000000000000000008152309263145e2a6b9261130d928690600401614a24565b600060405180830381600087803b15801561132757600080fd5b505af1925050508015611338575060015b6113ce573d808015611366576040519150601f19603f3d011682016040523d82523d6000602084013e61136b565b606091505b5061138484600001518560200151848860a00151613661565b7fdbbb883f24557adf486292429863dcfd4ac5d4db168ae94921da8e3d9a95d4168560a001516001836040516113bc93929190614cdc565b60405180910390a15050505050611417565b7f9b1bfa7fa9ee420a16e124f794c35ac9f90472acc99140eb2f6447c714cad8eb836000015184604001518360405161140993929190614a24565b60405180910390a15b505050505b50506005805460ff60a01b1916600160a01b179055505050505050505050565b60008060008060208601519150604086015192508560408151811061145857fe5b602001015160f81c60f81b60f81c601b0190506001858284866040516000815260200160405260405161148e9493929190614cfb565b6020604051602081039080840390855afa1580156114b0573d6000803e3d6000fd5b5050506020604051035193505050505b92915050565b600554600160a01b900460ff166114dd6001613274565b906114fb5760405162461bcd60e51b81526004016107769190614d19565b506005805460ff60a01b191690556b033b2e3c9fd0803ce80000004711156115236002613274565b906115415760405162461bcd60e51b81526004016107769190614d19565b507fd30df8040a1092415b49422a02dbd8cdd5915a596abcba02cd0f65dd86ab385160008383346115726006613757565b604051611583959493929190614b4c565b60405180910390a1611595600661375b565b50506005805460ff60a01b1916600160a01b179055565b609981565b600081565b600554600160a01b900460ff166115cd6001613274565b906115eb5760405162461bcd60e51b81526004016107769190614d19565b506005805460ff60a01b1916905583600061160582612d64565b90506000826001600160a01b03166370a08231306040518263ffffffff1660e01b81526004016116359190614a10565b60206040518083038186803b15801561164d57600080fd5b505afa158015611661573d6000803e3d6000fd5b505050506040513d601f19601f82011682018060405250810190611685919061483f565b90508086600960ff851611156116c05760098460ff1603600a0a81816116a757fe5b04905060098460ff1603600a0a83816116bc57fe5b0492505b670de0b6b3a764000081111580156116e05750670de0b6b3a76400008311155b80156116fd5750670de0b6b3a76400006116fa828561349e565b11155b6117076003613274565b906117255760405162461bcd60e51b81526004016107769190614d19565b506040517f23b872dd0000000000000000000000000000000000000000000000000000000081526001600160a01b038616906323b872dd9061176f90339030908d90600401614a24565b600060405180830381600087803b15801561178957600080fd5b505af115801561179d573d6000803e3d6000fd5b505050506117a961346a565b6117b36004613274565b906117d15760405162461bcd60e51b81526004016107769190614d19565b50876117e6836117e08c611a97565b90613764565b146117f1600a613274565b9061180f5760405162461bcd60e51b81526004016107769190614d19565b507fd30df8040a1092415b49422a02dbd8cdd5915a596abcba02cd0f65dd86ab38518988888461183f6006613757565b604051611850959493929190614b4c565b60405180910390a1611862600661375b565b50506005805460ff60a01b1916600160a01b17905550505050505050565b60046020526000908152604090205481565b600260209081526000928352604080842090915290825290205481565b6118b7613c1d565b6118bf613c52565b60606101288410156118d16013613274565b906118ef5760405162461bcd60e51b81526004016107769190614d19565b506118f8613c1d565b8585600081811061190557fe5b919091013560f81c8252508585600181811061191d57fe5b919091013560f81c60208301525060008686600281811061193a57fe5b845192013560f81c92505060ff16609e14801561195e5750816020015160ff166001145b801561196d575060ff81166003145b6119776013613274565b906119955760405162461bcd60e51b81526004016107769190614d19565b505061199f613c52565b6119ad60c36003888a615020565b8101906119ba9190613f0a565b6001600160a01b03908116604088810191909152918116875260a088019290925260808701929092529182166060860152911690830152611a0061012860c3888a615020565b8080601f01602080910402602001604051908101604052809392919081815260200183838082843760009201919091525050505060208201528181611a4988610128818c615020565b81818080601f016020809104026020016040519081016040528093929190818152602001838380828437600092019190915250969e959d50919b50939950505050505050505050565b609a81565b60006001600160a01b038216611aae575047611b66565b611ab7826137ba565b611ad35760405162461bcd60e51b815260040161077690614df7565b6040516370a0823160e01b81526001600160a01b038316906370a0823190611aff903090600401614a10565b60206040518083038186803b158015611b1757600080fd5b505afa925050508015611b47575060408051601f3d908101601f19168201909252611b449181019061483f565b60015b611b635760405162461bcd60e51b815260040161077690614e65565b90505b919050565b600554600160a01b900460ff16611b826001613274565b90611ba05760405162461bcd60e51b81526004016107769190614d19565b506005805460ff60a01b19169055895160821115611bbe6006613274565b90611bdc5760405162461bcd60e51b81526004016107769190614d19565b50611be5613c1d565b611bee8b611fb3565b805190915060ff16609a148015611c0c5750806020015160ff166001145b611c166006613274565b90611c345760405162461bcd60e51b81526004016107769190614d19565b50611c428160a00151611ee3565b15611c4d6005613274565b90611c6b5760405162461bcd60e51b81526004016107769190614d19565b5060a081015160009081526020819052604090819020805460ff191660011790558101516001600160a01b0316611cf6576040808201516001600160a01b03166000908152600460205220546080820151611cc59161349e565b471015611cd26007613274565b90611cf05760405162461bcd60e51b81526004016107769190614d19565b50611e08565b6000611d058260400151612d64565b905060098160ff161115611d32576080820151611d2c9060081960ff841601600a0a613504565b60808301525b6040808301516001600160a01b03166000908152600460205220546080830151611d5b9161349e565b82604001516001600160a01b03166370a08231306040518263ffffffff1660e01b8152600401611d8b9190614a10565b60206040518083038186803b158015611da357600080fd5b505afa158015611db7573d6000803e3d6000fd5b505050506040513d601f19601f82011682018060405250810190611ddb919061483f565b1015611de76007613274565b90611e055760405162461bcd60e51b81526004016107769190614d19565b50505b611e1a8b8b8b8b8b8b8b8b8b8b613566565b608081015160608201516001600160a01b0390811660009081526002602090815260408083208187015190941683529290522054611e579161349e565b60608201516001600160a01b03908116600090815260026020908152604080832081870180518616855290835281842095909555608086015194519093168252600490522054611ea69161349e565b6040918201516001600160a01b031660009081526004602052919091205550506005805460ff60a01b1916600160a01b1790555050505050505050565b60008181526020819052604081205460ff1615611f0257506001611b66565b6005546001600160a01b0316611f1a57506000611b66565b6005546040517f749c5f860000000000000000000000000000000000000000000000000000000081526001600160a01b039091169063749c5f8690611f63908590600401614cd3565b60206040518083038186803b158015611f7b57600080fd5b505afa158015611f8f573d6000803e3d6000fd5b505050506040513d601f19601f82011682018060405250810190611b63919061430a565b611fbb613c1d565b611fc3613c1d565b82600081518110611fd057fe5b016020015160f81c8152825183906001908110611fe957fe5b0160209081015160f81c9082015260228301516042840151606285015160828601516001600160a01b039384166040860152929091166060840152608083015260a08201529050919050565b600554600160a01b900460ff1661204c6001613274565b9061206a5760405162461bcd60e51b81526004016107769190614d19565b506005805460ff60a01b1916905560006120e761208b60048d88888f6137c0565b8a8a8a8a6040516020016120a3959493929190614f18565b60408051601f198184030181526020601f87018190048102840181019092528583529190869086908190840183828082843760009201919091525061384692505050565b90506120f3818c6138ea565b6001600160a01b038082166000908152600260209081526040808320938f16835292905220548a11156121266008613274565b906121445760405162461bcd60e51b81526004016107769190614d19565b506001600160a01b038b16600090815260046020526040902054612168908b613764565b6001600160a01b03808d16600081815260046020908152604080832095909555928516815260028352838120918152915220546121a5908b613764565b60026000836001600160a01b03166001600160a01b0316815260200190815260200160002060008d6001600160a01b03166001600160a01b0316815260200190815260200160002081905550600034905060006001600160a01b03168c6001600160a01b031614156122225761221b818c61349e565b9050612363565b6040516370a0823160e01b81528b906001600160a01b038e16906370a0823190612250903090600401614a10565b60206040518083038186803b15801561226857600080fd5b505afa15801561227c573d6000803e3d6000fd5b505050506040513d601f19601f820116820180604052508101906122a0919061483f565b10156122ac6007613274565b906122ca5760405162461bcd60e51b81526004016107769190614d19565b5060095460405163a9059cbb60e01b81526001600160a01b038e81169263a9059cbb926122ff92909116908f90600401614a48565b600060405180830381600087803b15801561231957600080fd5b505af115801561232d573d6000803e3d6000fd5b5050505061233961346a565b6123436004613274565b906123615760405162461bcd60e51b81526004016107769190614d19565b505b60006123b58b838b8b8080601f016020809104026020016040519081016040528093929190818152602001838380828437600081840152601f19601f820116905080830192505050505050508d613a2c565b90506124128160026000866001600160a01b03166001600160a01b0316815260200190815260200160002060008e6001600160a01b03166001600160a01b031681526020019081526020016000205461349e90919063ffffffff16565b60026000856001600160a01b03166001600160a01b0316815260200190815260200160002060008d6001600160a01b03166001600160a01b031681526020019081526020016000208190555061249681600460008e6001600160a01b03166001600160a01b031681526020019081526020016000205461349e90919063ffffffff16565b6001600160a01b03909b1660009081526004602052604090209a909a5550506005805460ff60a01b1916600160a01b17905550505050505050505050565b600360209081526000928352604080842090915290825290205460ff1681565b600554600160a01b900460ff1681565b600854156125126012613274565b906125305760405162461bcd60e51b81526004016107769190614d19565b5060026008556007546001600160a01b03161561254d6011613274565b9061256b5760405162461bcd60e51b81526004016107769190614d19565b50600780546001600160a01b0393841673ffffffffffffffffffffffffffffffffffffffff199182161790915560098054929093169116179055565b600554600160a01b900460ff166125be6001613274565b906125dc5760405162461bcd60e51b81526004016107769190614d19565b506005805460ff60a01b19169055604080516020601f840181900481028201810190925282815261262a918591908590859081908401838280828437600092019190915250613b8b92505050565b86600061263682612d64565b90506000826001600160a01b03166370a08231306040518263ffffffff1660e01b81526004016126669190614a10565b60206040518083038186803b15801561267e57600080fd5b505afa158015612692573d6000803e3d6000fd5b505050506040513d601f19601f820116820180604052508101906126b6919061483f565b90508089600960ff851611156126f15760098460ff1603600a0a81816126d857fe5b04905060098460ff1603600a0a83816126ed57fe5b0492505b670de0b6b3a764000081111580156127115750670de0b6b3a76400008311155b801561272e5750670de0b6b3a764000061272b828561349e565b11155b6127386003613274565b906127565760405162461bcd60e51b81526004016107769190614d19565b50846001600160a01b03166323b872dd33308e6040518463ffffffff1660e01b815260040161278793929190614a24565b600060405180830381600087803b1580156127a157600080fd5b505af11580156127b5573d6000803e3d6000fd5b505050506127c161346a565b6127cb6004613274565b906127e95760405162461bcd60e51b81526004016107769190614d19565b508a6127f8836117e08f611a97565b14612803600a613274565b906128215760405162461bcd60e51b81526004016107769190614d19565b507f2d4b597935f3cd67fb2eebf1db4debc934cee5c7baa7153f980fdbeb2e74084e8c8b8b846040516128579493929190614b18565b60405180910390a150506005805460ff60a01b1916600160a01b17905550505050505050505050565b609e81565b60003033146128946014613274565b906128b25760405162461bcd60e51b81526004016107769190614d19565b5060006128be83611a97565b9050606060006001600160a01b0389166128d9575085612971565b60095460405163a9059cbb60e01b81526001600160a01b038b81169263a9059cbb9261290d92909116908b90600401614a48565b600060405180830381600087803b15801561292757600080fd5b505af115801561293b573d6000803e3d6000fd5b5050505061294761346a565b6129516004613274565b9061296f5760405162461bcd60e51b81526004016107769190614d19565b505b600954604051631cff79cd60e01b81526001600160a01b0390911690631cff79cd9083906129a5908c908b90600401614ac1565b6000604051808303818588803b1580156129be57600080fd5b505af11580156129d2573d6000803e3d6000fd5b50505050506040513d6000823e601f3d908101601f191682016040526129fb91908101906144f8565b91508151604014612a0c6009613274565b90612a2a5760405162461bcd60e51b81526004016107769190614d19565b5060008083806020019051810190612a429190613f79565b91509150866001600160a01b0316826001600160a01b0316148015612a72575080612a70866117e08a611a97565b145b612a7c6009613274565b90612a9a5760405162461bcd60e51b81526004016107769190614d19565b509a9950505050505050505050565b600554600160a81b900460ff1615612ac1600f613274565b90612adf5760405162461bcd60e51b81526004016107769190614d19565b506005805460ff60a01b197fffffffffffffffffffff00ffffffffffffffffffffffffffffffffffffffffff6001600160a01b0380881673ffffffffffffffffffffffffffffffffffffffff199094169390931716600160a81b1716600160a01b179091556007541615612b536011613274565b90612b715760405162461bcd60e51b81526004016107769190614d19565b50600780546001600160a01b0393841673ffffffffffffffffffffffffffffffffffffffff199182161790915560098054929093169116179055506002600855565b6009546001600160a01b031681565b600554600160a01b900460ff16612bd96001613274565b90612bf75760405162461bcd60e51b81526004016107769190614d19565b506005805460ff60a01b191690556b033b2e3c9fd0803ce8000000471115612c1f6002613274565b90612c3d5760405162461bcd60e51b81526004016107769190614d19565b50612c7e8383838080601f016020809104026020016040519081016040528093929190818152602001838380828437600092019190915250613b8b92505050565b7f2d4b597935f3cd67fb2eebf1db4debc934cee5c7baa7153f980fdbeb2e74084e6000868634604051612cb49493929190614b18565b60405180910390a150506005805460ff60a01b1916600160a01b179055505050565b6007546001600160a01b03161580612cf857506007546001600160a01b031633145b8015612d0c57506001600160a01b03811615155b612d166011613274565b90612d345760405162461bcd60e51b81526004016107769190614d19565b506007805473ffffffffffffffffffffffffffffffffffffffff19166001600160a01b0392909216919091179055565b6000612d6f826137ba565b612d8b5760405162461bcd60e51b815260040161077690614e2e565b6000829050806001600160a01b031663313ce5676040518163ffffffff1660e01b815260040160206040518083038186803b158015612dc957600080fd5b505afa925050508015612df9575060408051601f3d908101601f19168201909252612df69181019061483f565b60015b612e155760405162461bcd60e51b815260040161077690614d2c565b9150611b669050565b60085481565b600381565b60006020819052908152604090205460ff1681565b6007546001600160a01b031681565b60008181526001602052604081205460ff1615612e6c57506001611b66565b6005546001600160a01b0316612e8457506000611b66565b6005546040517fe4bd70740000000000000000000000000000000000000000000000000000000081526001600160a01b039091169063e4bd707490611f63908590600401614cd3565b6005546000906001600160a01b031615801590612f1057506001600160a01b0380831660009081526003602090815260408083209387168352929052205460ff16155b15612fcc57600554604051637badcc6760e11b8152612fc5916001600160a01b03169063f75b98ce90612f499087908790600401614a61565b60206040518083038186803b158015612f6157600080fd5b505afa158015612f75573d6000803e3d6000fd5b505050506040513d601f19601f82011682018060405250810190612f99919061483f565b6001600160a01b038085166000908152600260209081526040808320938916835292905220549061349e565b90506114c0565b506001600160a01b0380821660009081526002602090815260408083209386168352929052205492915050565b6005546001600160a01b031681565b600554600160a01b900460ff1661301f6001613274565b9061303d5760405162461bcd60e51b81526004016107769190614d19565b506005805460ff60a01b19169055604080516020601f840181900481028201810190925282815261308b918591908590859081908401838280828437600092019190915250613b8b92505050565b60006130f661309e60058c89898e6137c0565b8d8d6040516020016130b293929190614f61565b60408051601f198184030181526020601f8c018190048102840181019092528a835291908b908b908190840183828082843760009201919091525061384692505050565b9050613102818b6138ea565b6001600160a01b038082166000908152600260209081526040808320938e16835292905220548911156131356008613274565b906131535760405162461bcd60e51b81526004016107769190614d19565b506001600160a01b038082166000908152600260209081526040808320938e1683529290522054613184908a613764565b6001600160a01b038083166000908152600260209081526040808320938f1683529281528282209390935560049092529020546131c1908a613764565b6001600160a01b038b166000818152600460205260409020919091558990156132155760006131ef8c612d64565b905060098160ff1611156132135760098160ff1603600a0a8b8161320f57fe5b0491505b505b7f2d4b597935f3cd67fb2eebf1db4debc934cee5c7baa7153f980fdbeb2e74084e8b8e8e8460405161324a9493929190614b18565b60405180910390a150506005805460ff60a01b1916600160a01b1790555050505050505050505050565b6060600082601481111561328457fe5b60408051600a808252818301909252919250906060908260208201818036833701905050905060005b60ff841615613313578151600a60ff959095168581049560018401939106916030830160f81b91859181106132de57fe5b60200101907effffffffffffffffffffffffffffffffffffffffffffffffffffffffffffff1916908160001a905350506132ad565b60608160010167ffffffffffffffff8111801561332f57600080fd5b506040519080825280601f01601f19166020018201604052801561335a576020820181803683370190505b50905060005b8281116133c357838184038151811061337557fe5b602001015160f81c60f81b82828151811061338c57fe5b60200101907effffffffffffffffffffffffffffffffffffffffffffffffffffffffffffff1916908160001a905350600101613360565b509695505050505050565b804710156133ee5760405162461bcd60e51b815260040161077690614dc0565b6000826001600160a01b03168260405161340790614a0d565b60006040518083038185875af1925050503d8060008114613444576040519150601f19603f3d011682016040523d82523d6000602084013e613449565b606091505b505090508061082f5760405162461bcd60e51b815260040161077690614d63565b6000803d8015613481576020811461348a57613496565b60019150613496565b60206000803e60005191505b501515905090565b60008282018381108015906134b35750828110155b6040518060400160405280601281526020017129b0b332a6b0ba341032bc31b2b83a34b7b760711b815250906134fc5760405162461bcd60e51b81526004016107769190614d19565b509392505050565b60008282028315806134b357508284828161351b57fe5b04146040518060400160405280601281526020017129b0b332a6b0ba341032bc31b2b83a34b7b760711b815250906134fc5760405162461bcd60e51b81526004016107769190614d19565b60008a8a60405160200161357b9291906149eb565b60405160208183030381529060405280519060200120905061359b613bf8565b6001600160a01b031663f65d21166001838d8d8d8d8d8d8d8d8d6040518c63ffffffff1660e01b81526004016135db9b9a99989796959493929190614c26565b60206040518083038186803b1580156135f357600080fd5b505afa158015613607573d6000803e3d6000fd5b505050506040513d601f19601f8201168201806040525081019061362b919061430a565b6136356006613274565b906136535760405162461bcd60e51b81526004016107769190614d19565b505050505050505050505050565b816001600160a01b0385166136ae576b033b2e3c9fd0803ce800000047111561368a6002613274565b906136a85760405162461bcd60e51b81526004016107769190614d19565b50613714565b60006136b986612d64565b905060098160ff1611156136dd5760098160ff1603600a0a82816136d957fe5b0491505b670de0b6b3a76400008211156136f36003613274565b906137115760405162461bcd60e51b81526004016107769190614d19565b50505b7eb45d95b5117447e2fafe7f34def913ff3ba220e4b8688acf37ae2328af7a3d858583856040516137489493929190614ae3565b60405180910390a15050505050565b5490565b80546001019055565b6000828211156040518060400160405280601281526020017129b0b332a6b0ba341032bc31b2b83a34b7b760711b815250906137b35760405162461bcd60e51b81526004016107769190614d19565b5050900390565b3b151590565b6137c8613c85565b6137d0613c85565b60405180608001604052808860078111156137e757fe5b8152602001876001600160a01b0316815260200186868080601f01602080910402602001604051908101604052809392919081815260200183838082843760009201919091525050509082525060200184905291505095945050505050565b8151602083012060009061385981612e4d565b156138646005613274565b906138825760405162461bcd60e51b81526004016107769190614d19565b50600061388f8483611437565b90506001600160a01b03811615156138a76010613274565b906138c55760405162461bcd60e51b81526004016107769190614d19565b506000918252600160208190526040909220805460ff19169092179091559392505050565b6005546001600160a01b03161580159061392a57506001600160a01b0380831660009081526003602090815260408083209385168352929052205460ff16155b15613a2857600554604051637badcc6760e11b81526139df916001600160a01b03169063f75b98ce906139639085908790600401614a61565b60206040518083038186803b15801561397b57600080fd5b505afa15801561398f573d6000803e3d6000fd5b505050506040513d601f19601f820116820180604052508101906139b3919061483f565b6001600160a01b038085166000908152600260209081526040808320938716835292905220549061349e565b6001600160a01b038084166000818152600260209081526040808320948716808452948252808320959095559181526003825283812092815291905220805460ff191660011790555b5050565b600080613a3886611a97565b90506001600160a01b038616613a5557613a528134613764565b90505b84471015613a636007613274565b90613a815760405162461bcd60e51b81526004016107769190614d19565b50600954604051631cff79cd60e01b81526060916001600160a01b031690631cff79cd908890613ab79088908a90600401614ac1565b6000604051808303818588803b158015613ad057600080fd5b505af1158015613ae4573d6000803e3d6000fd5b50505050506040513d6000823e601f3d908101601f19168201604052613b0d91908101906144f8565b905060008082806020019051810190613b269190613f79565b91509150886001600160a01b0316826001600160a01b0316148015613b56575080613b54856117e08c611a97565b145b613b606009613274565b90613b7e5760405162461bcd60e51b81526004016107769190614d19565b5098975050505050505050565b6000613bda826040518060400160405280336001600160a01b0316815260200186815250604051602001613bbf9190614f87565b60405160208183030381529060405280519060200120611437565b6007549091506001600160a01b0380831691161461080f6010613274565b7f62135fc083646fdb4e1a9d700e351b886a4a5a39da980650269edd1ade91ffd25490565b6040805160c081018252600080825260208201819052918101829052606081018290526080810182905260a081019190915290565b604051806060016040528060006001600160a01b031681526020016060815260200160006001600160a01b031681525090565b6040805160808101909152806000815260200160006001600160a01b0316815260200160608152602001600081525090565b80356114c081615074565b60008083601f840112613cd3578182fd5b50813567ffffffffffffffff811115613cea578182fd5b6020830191508360208083028501011115613d0457600080fd5b9250929050565b600082601f830112613d1b578081fd5b8135613d2e613d2982614fdc565b614fb5565b818152915060208083019084810181840286018201871015613d4f57600080fd5b60005b84811015613d77578135613d658161508c565b84529282019290820190600101613d52565b505050505092915050565b600082601f830112613d92578081fd5b8135613da0613d2982614fdc565b818152915060208083019084810181840286018201871015613dc157600080fd5b60005b84811015613d7757813584529282019290820190600101613dc4565b600082601f830112613df0578081fd5b8135613dfe613d2982614fdc565b818152915060208083019084810181840286018201871015613e1f57600080fd5b6000805b85811015613e4d57823560ff81168114613e3b578283fd5b85529383019391830191600101613e23565b50505050505092915050565b60008083601f840112613e6a578182fd5b50813567ffffffffffffffff811115613e81578182fd5b602083019150836020828501011115613d0457600080fd5b600082601f830112613ea9578081fd5b8135613eb7613d2982614ffc565b9150808252836020828501011115613ece57600080fd5b8060208401602084013760009082016020015292915050565b600060208284031215613ef8578081fd5b8135613f0381615074565b9392505050565b60008060008060008060c08789031215613f22578182fd5b8635613f2d81615074565b95506020870135613f3d81615074565b945060408701359350606087013592506080870135613f5b81615074565b915060a0870135613f6b81615074565b809150509295509295509295565b60008060408385031215613f8b578182fd5b8251613f9681615074565b6020939093015192949293505050565b60008060408385031215613fb8578182fd5b8235613fc381615074565b91506020830135613fd381615074565b809150509250929050565b600080600060608486031215613ff2578081fd5b8335613ffd81615074565b9250602084013561400d81615074565b929592945050506040919091013590565b600080600060608486031215614032578081fd5b833561403d81615074565b9250602084013561404d81615074565b9150604084013561405d81615074565b809150509250925092565b600080600080600060a0868803121561407f578283fd5b853561408a81615074565b9450602086013561409a81615074565b935060408601359250606086013567ffffffffffffffff8111156140bc578182fd5b6140c888828901613e99565b92505060808601356140d981615074565b809150509295509295909350565b60008060008060008060008060008060e08b8d031215614105578788fd5b8a3561411081615074565b995060208b0135985060408b013561412781615074565b97506141368c60608d01613cb7565b965060808b013567ffffffffffffffff80821115614152578586fd5b61415e8e838f01613e59565b909850965060a08d0135915080821115614176578586fd5b6141828e838f01613e59565b909650945060c08d013591508082111561419a578384fd5b506141a78d828e01613e59565b915080935050809150509295989b9194979a5092959850565b600080600080606085870312156141d5578182fd5b84356141e081615074565b935060208501359250604085013567ffffffffffffffff811115614202578283fd5b61420e87828801613e59565b95989497509550505050565b600080600080600080600060a0888a031215614234578081fd5b873561423f81615074565b965060208801359550604088013567ffffffffffffffff80821115614262578283fd5b61426e8b838c01613e59565b909750955060608a0135945060808a013591508082111561428d578283fd5b5061429a8a828b01613e59565b989b979a50959850939692959293505050565b600080600080604085870312156142c2578182fd5b843567ffffffffffffffff808211156142d9578384fd5b6142e588838901613cc2565b909650945060208701359150808211156142fd578384fd5b5061420e87828801613cc2565b60006020828403121561431b578081fd5b8151613f038161508c565b600060208284031215614337578081fd5b5035919050565b60008060208385031215614350578182fd5b823567ffffffffffffffff811115614366578283fd5b61437285828601613e59565b90969095509350505050565b60008060008060008060008060008060006101408c8e03121561439f578485fd5b67ffffffffffffffff808d3511156143b5578586fd5b6143c28e8e358f01613e59565b909c509a5060208d0135995060408d01358110156143de578586fd5b6143ee8e60408f01358f01613d82565b98508060608e01351115614400578586fd5b6144108e60608f01358f01613d0b565b975060808d0135965060a08d013595508060c08e01351115614430578182fd5b6144408e60c08f01358f01613d82565b94508060e08e01351115614452578182fd5b6144628e60e08f01358f01613de0565b9350806101008e01351115614475578182fd5b6144868e6101008f01358f01613d82565b9250806101208e01351115614499578182fd5b506144ab8d6101208e01358e01613d82565b90509295989b509295989b9093969950565b6000602082840312156144ce578081fd5b813567ffffffffffffffff8111156144e4578182fd5b6144f084828501613e99565b949350505050565b600060208284031215614509578081fd5b815167ffffffffffffffff81111561451f578182fd5b8201601f8101841361452f578182fd5b805161453d613d2982614ffc565b818152856020838501011115614551578384fd5b614562826020830160208601615048565b95945050505050565b6000806040838503121561457d578182fd5b823567ffffffffffffffff811115614593578283fd5b61459f85828601613e99565b95602094909401359450505050565b6000806000806000806000806000806101408b8d0312156145cd578384fd5b8a3567ffffffffffffffff808211156145e4578586fd5b6145f08e838f01613e99565b9b5060208d01359a5060408d013591508082111561460c578586fd5b6146188e838f01613d82565b995060608d013591508082111561462d578586fd5b6146398e838f01613d0b565b985060808d0135975060a08d0135965060c08d013591508082111561465c578586fd5b6146688e838f01613d82565b955060e08d013591508082111561467d578485fd5b6146898e838f01613de0565b94506101008d013591508082111561469f578384fd5b6146ab8e838f01613d82565b93506101208d01359150808211156146c1578283fd5b506146ce8d828e01613d82565b9150509295989b9194979a5092959850565b600080600080600080600080600080600060e08c8e031215614700578485fd5b67ffffffffffffffff808d351115614716578586fd5b6147238e8e358f01613e59565b909c509a506147358e60208f01613cb7565b995060408d013598508060608e0135111561474e578586fd5b61475e8e60608f01358f01613e59565b909850965060808d0135811015614773578586fd5b6147838e60808f01358f01613e59565b909650945060a08d0135935060c08d013581101561479f578182fd5b506147b08d60c08e01358e01613e59565b81935080925050509295989b509295989b9093969950565b6000806000806000606086880312156147df578283fd5b853567ffffffffffffffff808211156147f6578485fd5b61480289838a01613e59565b9097509550602088013594506040880135915080821115614821578283fd5b5061482e88828901613e59565b969995985093965092949392505050565b600060208284031215614850578081fd5b5051919050565b6000815180845260208085019450808401835b8381101561488857815115158752958201959082019060010161486a565b509495945050505050565b6000815180845260208085019450808401835b83811015614888578151875295820195908201906001016148a6565b6000815180845260208085019450808401835b8381101561488857815160ff16875295820195908201906001016148d5565b60008284528282602086013780602084860101526020601f19601f85011685010190509392505050565b60008151808452614936816020860160208601615048565b601f01601f19169290920160200192915050565b60ff815116825260ff602082015116602083015260408101516001600160a01b03808216604085015280606084015116606085015250506080810151608083015260a081015160a08301525050565b60008151600881106149a757fe5b808452506001600160a01b0360208301511660208401526040820151608060408501526149d7608085018261491e565b606093840151949093019390935250919050565b600083516149fd818460208801615048565b9190910191825250602001919050565b90565b6001600160a01b0391909116815260200190565b6001600160a01b039384168152919092166020820152604081019190915260600190565b6001600160a01b03929092168252602082015260400190565b6001600160a01b0392831681529116602082015260400190565b60006001600160a01b038088168352808716602084015285604084015260a06060840152614aac60a084018661491e565b91508084166080840152509695505050505050565b60006001600160a01b0384168252604060208301526144f0604083018461491e565b60006001600160a01b038616825260806020830152614b05608083018661491e565b6040830194909452506060015292915050565b60006001600160a01b038616825260606020830152614b3b6060830185876148f4565b905082604083015295945050505050565b60006001600160a01b038716825260806020830152614b6f6080830186886148f4565b604083019490945250606001529392505050565b6040808252810184905260008560608301825b87811015614bc65760208335614bab81615074565b6001600160a01b031683529283019290910190600101614b96565b5083810360208501528481527f07ffffffffffffffffffffffffffffffffffffffffffffffffffffffffffffff851115614bfe578283fd5b602085029150818660208301370160200190815295945050505050565b901515815260200190565b60006101608d151583528c60208401528b6040840152806060840152614c4e8184018c614893565b90508281036080840152614c62818b614857565b90508860a08401528760c084015282810360e0840152614c828188614893565b9050828103610100840152614c9781876148c2565b9050828103610120840152614cac8186614893565b9050828103610140840152614cc18185614893565b9e9d5050505050505050505050505050565b90815260200190565b600084825283602083015260606040830152614562606083018461491e565b93845260ff9290921660208401526040830152606082015260800190565b600060208252613f03602083018461491e565b60208082526018908201527f67657420455243323020646563696d616c206661696c65640000000000000000604082015260600190565b6020808252603a908201527f416464726573733a20756e61626c6520746f2073656e642076616c75652c207260408201527f6563697069656e74206d61792068617665207265766572746564000000000000606082015260800190565b6020808252601d908201527f416464726573733a20696e73756666696369656e742062616c616e6365000000604082015260600190565b60208082526016908201527f62616c616e63654f66206e6f6e2d636f6e747261637400000000000000000000604082015260600190565b60208082526018908201527f676574446563696d616c73206e6f6e2d636f6e74726163740000000000000000604082015260600190565b60208082526018908201527f6765742045524332302062616c616e6365206661696c65640000000000000000604082015260600190565b60c081016114c0828461494a565b6000610100614eb9838761494a565b8060c08401526001600160a01b038086511682850152602086015191506060610120850152614eec61016085018361491e565b9150806040870151166101408501525082810360e0840152614f0e818561491e565b9695505050505050565b600060808252614f2b6080830188614999565b6001600160a01b038781166020850152861660408401528281036060840152614f558185876148f4565b98975050505050505050565b600060408252614f746040830186614999565b8281036020840152614f0e8185876148f4565b81516001600160a01b031681526020918201519181019190915260400190565b60ff91909116815260200190565b60405181810167ffffffffffffffff81118282101715614fd457600080fd5b604052919050565b600067ffffffffffffffff821115614ff2578081fd5b5060209081020190565b600067ffffffffffffffff821115615012578081fd5b50601f01601f191660200190565b6000808585111561502f578182fd5b8386111561503b578182fd5b5050820193919092039150565b60005b8381101561506357818101518382015260200161504b565b8381111561082d5750506000910152565b6001600160a01b038116811461508957600080fd5b50565b801515811461508957600080fdfea2646970667358221220e723b0db3858d3df183bbf1b6f9f2d5e38c2920a0a164a9b616bb05de55a91c664736f6c634300060c0033",
  "devdoc": {
    "kind": "dev",
    "methods": {
      "balanceOf(address)": {
        "details": "Get the amount of coin deposited to this smartcontract"
      },
      "deposit(string,bytes32,bytes)": {
        "details": "Makes a ETH deposit to the vault to mint pETH over at Incognito Chain",
        "params": {
          "incognitoAddress": ": Incognito Address to receive pETH",
          "signData": ": regulator signature",
          "txId": ": move fund transaction hash"
        }
      },
      "depositERC20(address,uint256,string,bytes32,bytes)": {
        "details": "Makes a ERC20 deposit to the vault to mint pERC20 over at Incognito Chain",
        "params": {
          "amount": ": to deposit to the vault and mint on Incognito Chain",
          "incognitoAddress": ": Incognito Address to receive pERC20",
          "signData": ": regulator signature",
          "token": ": address of the ERC20 token",
          "txId": ": move fund transaction hash"
        }
      },
      "depositERC20_V2(address,uint256,string)": {
        "details": "Makes a ERC20 deposit to the vault to mint pERC20 over at Incognito Chain",
        "params": {
          "amount": ": to deposit to the vault and mint on Incognito Chain",
          "incognitoAddress": ": Incognito Address to receive pERC20",
          "token": ": address of the ERC20 token"
        }
      },
      "deposit_V2(string)": {
        "details": "Makes a ETH deposit to the vault to mint pETH over at Incognito Chain",
        "params": {
          "incognitoAddress": ": Incognito Address to receive pETH"
        }
      },
      "execute(address,uint256,address,address,bytes,bytes,bytes)": {
        "details": "execute is a general function that plays a role as proxy to interact to other smart contracts.",
        "params": {
          "amount": ": amount of the token in ethereum's denomination",
          "callData": ": encoded with signature and params of function from targeting smart contract.",
          "exchangeAddress": ": address of targeting smart contract that actually executes the desired logics like trade, invest, borrow and so on.",
          "recipientToken": ": received token address.",
          "signData": ": signature of an unique data that is signed by an account which is generated from user's incognito privkey",
          "timestamp": ": unique data generated from client (timestamp for example)",
          "token": ": ethereum's token address (eg., ETH, DAI, ...)"
        }
      },
      "getDecimals(address)": {
        "details": "Get the decimals of an ERC20 token, return 0 if it isn't defined We check the returndatasize to covert both cases that the token has and doesn't have the function decimals()"
      },
      "getDepositedBalance(address,address)": {
        "details": "Get the amount of specific coin for specific wallet"
      },
      "initialize(address,address,address)": {
        "details": "Creates new Vault to hold assets for Incognito Chain",
        "params": {
          "_executor": ": helper contract to perform external call from After migrating all assets to a new Vault, we still need to refer back to previous Vault to make sure old withdrawals aren't being reused",
          "_prevVault": ": previous version of the Vault to refer back if necessary",
          "_regulator": ": ..."
        }
      },
      "isSigDataUsed(bytes32)": {
        "details": "Checks if a sig data has been used before",
        "params": {
          "hash": ": of the sig data"
        },
        "returns": {
          "_0": "bool: whether the sig data has been used or not"
        }
      },
      "isWithdrawed(bytes32)": {
        "details": "Checks if a burn proof has been used before",
        "params": {
          "hash": ": of the burn proof"
        },
        "returns": {
          "_0": "bool: whether the proof has been used or not"
        }
      },
      "parseBurnInst(bytes)": {
        "details": "Parses a burn instruction and returns the components",
        "params": {
          "inst": ": the full instruction, containing both metadata and body"
        }
      },
      "parseCalldataFromBurnInst(bytes)": {
        "details": "Parses an extended burn instruction and returns the components",
        "params": {
          "inst": ": the full instruction, containing both metadata and body"
        }
      },
      "requestWithdraw(string,address,uint256,bytes,bytes,bytes32,bytes)": {
        "details": "User requests withdraw token contains in withdrawRequests. Deposit event will be emitted to let incognito recognize and mint new p-tokens for the user.",
        "params": {
          "amount": ": amount of the token in ethereum's denomination",
          "incognitoAddress": ": incognito's address that will receive minted p-tokens.",
          "signData": ": regulator signature",
          "timestamp": ": unique data generated from client (timestamp for example)",
          "token": ": ethereum's token address (eg., ETH, DAI, ...)",
          "txId": ": move fund transaction hash"
        }
      },
      "setRegulator(address)": {
        "details": "set regulator"
      },
      "sigToAddress(bytes,bytes32)": {
        "details": "generate address from signature data and hash."
      },
      "submitBurnProof(bytes,uint256,bytes32[],bool[],bytes32,bytes32,uint256[],uint8[],bytes32[],bytes32[])": {
        "details": "Burnt Proof is submited to store burnt amount of p-token/p-ETH and receiver's address Receiver then can call withdrawRequest to withdraw these token to he/she incognito address.",
        "params": {
          "blkData": ": merkle has of the block body",
          "heights": ": the blocks containing the instruction",
          "inst": ": the decoded instruction as a list of bytes",
          "instPathIsLefts": ": whether each node on the path is the left or right child",
          "instPaths": ": merkle path of the instruction",
          "instRoots": ": root of the merkle tree contains all instructions",
          "sigIdxs": ": indices of the validators who signed this block",
          "sigRs": ": part of the signatures of the validators",
          "sigSs": ": part of the signatures of the validators",
          "sigVs": ": part of the signatures of the validators"
        }
      },
      "updateAssets(address[],uint256[])": {
        "details": "Move total number of assets to newVault",
        "params": {
          "amounts": ": total number of the ERC20 tokens to move, 0x0 for ETH",
          "assets": ": address of the ERC20 tokens to move, 0x0 for ETH"
        }
      },
      "upgradeVaultStorage(address,address)": {
        "details": "upgrade helper for storage layout version 2",
        "params": {
          "_executor": ": helper contract to perform external call from",
          "_regulator": ": ..."
        }
      },
      "withdraw(bytes,uint256,bytes32[],bool[],bytes32,bytes32,uint256[],uint8[],bytes32[],bytes32[])": {
        "details": "Withdraws pETH/pIERC20 by providing a burn proof over at Incognito Chain",
        "params": {
          "blkData": ": merkle has of the block body",
          "heights": ": the blocks containing the instruction",
          "inst": ": the decoded instruction as a list of bytes",
          "instPathIsLefts": ": whether each node on the path is the left or right child",
          "instPaths": ": merkle path of the instruction",
          "instRoots": ": root of the merkle tree contains all instructions",
          "sigIdxs": ": indices of the validators who signed this block",
          "sigRs": ": part of the signatures of the validators",
          "sigSs": ": part of the signatures of the validators",
          "sigVs": ": part of the signatures of the validators"
        }
      }
    },
    "stateVariables": {
      "CURRENT_NETWORK_ID": {
        "details": "Added in Storage Layout version : 2.0"
      },
      "_INCOGNITO_SLOT": {
        "details": "Storage slot with the incognito proxy. This is the keccak-256 hash of \"eip1967.proxy.incognito.\" subtracted by 1"
      },
      "withdrawed": {
        "details": "Storage variables for Vault This section is APPEND-ONLY, in order to preserve upgradeability since we use Proxy Pattern"
      }
    },
    "version": 1
  },
  "userdoc": {
    "kind": "user",
    "methods": {
      "deposit(string,bytes32,bytes)": {
        "notice": "This only works when the contract is not PausedThe maximum amount to deposit is capped since Incognito balance is stored as uint64"
      },
      "depositERC20(address,uint256,string,bytes32,bytes)": {
        "notice": "This only works when the contract is not PausedThe maximum amount to deposit is capped since Incognito balance is stored as uint64Before calling this function, enough ERC20 must be allowed to tranfer from msg.sender to this contract"
      },
      "depositERC20_V2(address,uint256,string)": {
        "notice": "This only works when the contract is not PausedThe maximum amount to deposit is capped since Incognito balance is stored as uint64Before calling this function, enough ERC20 must be allowed to tranfer from msg.sender to this contract"
      },
      "deposit_V2(string)": {
        "notice": "This only works when the contract is not PausedThe maximum amount to deposit is capped since Incognito balance is stored as uint64"
      },
      "isSigDataUsed(bytes32)": {
        "notice": "First, we check inside the storage of this contract itself. If the hash has been used before, we return the result. Otherwise, we query previous vault recursively until the first Vault (prevVault address is 0x0)"
      },
      "isWithdrawed(bytes32)": {
        "notice": "First, we check inside the storage of this contract itself. If the hash has been used before, we return the result. Otherwise, we query previous vault recursively until the first Vault (prevVault address is 0x0)"
      },
      "submitBurnProof(bytes,uint256,bytes32[],bool[],bytes32,bytes32,uint256[],uint8[],bytes32[],bytes32[])": {
        "notice": "This function takes a burn instruction on Incognito Chain, checks for its validity and returns the token back to ETH chainThis only works when the contract is not Paused"
      },
      "updateAssets(address[],uint256[])": {
        "notice": "This only works when the preVault is PausedThis can only be called by preVault"
      },
      "withdraw(bytes,uint256,bytes32[],bool[],bytes32,bytes32,uint256[],uint8[],bytes32[],bytes32[])": {
        "notice": "This function takes a burn instruction on Incognito Chain, checks for its validity and returns the token back to ETH chainThis only works when the contract is not Paused"
      }
    },
    "version": 1
  },
  "storageLayout": {
    "storage": [
      {
        "astId": 17306,
        "contract": "contracts/vault_variants/vault_PLG.sol:VaultPLG",
        "label": "withdrawed",
        "offset": 0,
        "slot": "0",
        "type": "t_mapping(t_bytes32,t_bool)"
      },
      {
        "astId": 17310,
        "contract": "contracts/vault_variants/vault_PLG.sol:VaultPLG",
        "label": "sigDataUsed",
        "offset": 0,
        "slot": "1",
        "type": "t_mapping(t_bytes32,t_bool)"
      },
      {
        "astId": 17316,
        "contract": "contracts/vault_variants/vault_PLG.sol:VaultPLG",
        "label": "withdrawRequests",
        "offset": 0,
        "slot": "2",
        "type": "t_mapping(t_address,t_mapping(t_address,t_uint256))"
      },
      {
        "astId": 17322,
        "contract": "contracts/vault_variants/vault_PLG.sol:VaultPLG",
        "label": "migration",
        "offset": 0,
        "slot": "3",
        "type": "t_mapping(t_address,t_mapping(t_address,t_bool))"
      },
      {
        "astId": 17326,
        "contract": "contracts/vault_variants/vault_PLG.sol:VaultPLG",
        "label": "totalDepositedToSCAmount",
        "offset": 0,
        "slot": "4",
        "type": "t_mapping(t_address,t_uint256)"
      },
      {
        "astId": 17328,
        "contract": "contracts/vault_variants/vault_PLG.sol:VaultPLG",
        "label": "prevVault",
        "offset": 0,
        "slot": "5",
        "type": "t_contract(Withdrawable)8077"
      },
      {
        "astId": 17330,
        "contract": "contracts/vault_variants/vault_PLG.sol:VaultPLG",
        "label": "notEntered",
        "offset": 20,
        "slot": "5",
        "type": "t_bool"
      },
      {
        "astId": 17332,
        "contract": "contracts/vault_variants/vault_PLG.sol:VaultPLG",
        "label": "isInitialized",
        "offset": 21,
        "slot": "5",
        "type": "t_bool"
      },
      {
        "astId": 17347,
        "contract": "contracts/vault_variants/vault_PLG.sol:VaultPLG",
        "label": "idCounter",
        "offset": 0,
        "slot": "6",
        "type": "t_struct(Counter)7961_storage"
      },
      {
        "astId": 17349,
        "contract": "contracts/vault_variants/vault_PLG.sol:VaultPLG",
        "label": "regulator",
        "offset": 0,
        "slot": "7",
        "type": "t_address"
      },
      {
        "astId": 17351,
        "contract": "contracts/vault_variants/vault_PLG.sol:VaultPLG",
        "label": "storageLayoutVersion",
        "offset": 0,
        "slot": "8",
        "type": "t_uint256"
      },
      {
        "astId": 17353,
        "contract": "contracts/vault_variants/vault_PLG.sol:VaultPLG",
        "label": "executor",
        "offset": 0,
        "slot": "9",
        "type": "t_address"
      }
    ],
    "types": {
      "t_address": {
        "encoding": "inplace",
        "label": "address",
        "numberOfBytes": "20"
      },
      "t_bool": {
        "encoding": "inplace",
        "label": "bool",
        "numberOfBytes": "1"
      },
      "t_bytes32": {
        "encoding": "inplace",
        "label": "bytes32",
        "numberOfBytes": "32"
      },
      "t_contract(Withdrawable)8077": {
        "encoding": "inplace",
        "label": "contract Withdrawable",
        "numberOfBytes": "20"
      },
      "t_mapping(t_address,t_bool)": {
        "encoding": "mapping",
        "key": "t_address",
        "label": "mapping(address => bool)",
        "numberOfBytes": "32",
        "value": "t_bool"
      },
      "t_mapping(t_address,t_mapping(t_address,t_bool))": {
        "encoding": "mapping",
        "key": "t_address",
        "label": "mapping(address => mapping(address => bool))",
        "numberOfBytes": "32",
        "value": "t_mapping(t_address,t_bool)"
      },
      "t_mapping(t_address,t_mapping(t_address,t_uint256))": {
        "encoding": "mapping",
        "key": "t_address",
        "label": "mapping(address => mapping(address => uint256))",
        "numberOfBytes": "32",
        "value": "t_mapping(t_address,t_uint256)"
      },
      "t_mapping(t_address,t_uint256)": {
        "encoding": "mapping",
        "key": "t_address",
        "label": "mapping(address => uint256)",
        "numberOfBytes": "32",
        "value": "t_uint256"
      },
      "t_mapping(t_bytes32,t_bool)": {
        "encoding": "mapping",
        "key": "t_bytes32",
        "label": "mapping(bytes32 => bool)",
        "numberOfBytes": "32",
        "value": "t_bool"
      },
      "t_struct(Counter)7961_storage": {
        "encoding": "inplace",
        "label": "struct Counters.Counter",
        "members": [
          {
            "astId": 7960,
            "contract": "contracts/vault_variants/vault_PLG.sol:VaultPLG",
            "label": "_value",
            "offset": 0,
            "slot": "0",
            "type": "t_uint256"
          }
        ],
        "numberOfBytes": "32"
      },
      "t_uint256": {
        "encoding": "inplace",
        "label": "uint256",
        "numberOfBytes": "32"
      }
    }
  }
}